{
  "_format": "hh-sol-artifact-1",
  "contractName": "CommonERC721",
  "sourceName": "contracts/CommonERC721.sol",
  "abi": [
    {
      "inputs": [
        {
          "internalType": "string",
          "name": "name",
          "type": "string"
        },
        {
          "internalType": "string",
          "name": "symbol",
          "type": "string"
        },
        {
          "internalType": "uint16",
          "name": "maxSupply",
          "type": "uint16"
        },
        {
          "internalType": "uint256",
          "name": "_mintRate",
          "type": "uint256"
        },
        {
          "internalType": "string",
          "name": "_contractURI",
          "type": "string"
        }
      ],
      "stateMutability": "nonpayable",
      "type": "constructor"
    },
    {
      "anonymous": false,
      "inputs": [
        {
          "indexed": true,
          "internalType": "address",
          "name": "owner",
          "type": "address"
        },
        {
          "indexed": true,
          "internalType": "address",
          "name": "approved",
          "type": "address"
        },
        {
          "indexed": true,
          "internalType": "uint256",
          "name": "tokenId",
          "type": "uint256"
        }
      ],
      "name": "Approval",
      "type": "event"
    },
    {
      "anonymous": false,
      "inputs": [
        {
          "indexed": true,
          "internalType": "address",
          "name": "owner",
          "type": "address"
        },
        {
          "indexed": true,
          "internalType": "address",
          "name": "operator",
          "type": "address"
        },
        {
          "indexed": false,
          "internalType": "bool",
          "name": "approved",
          "type": "bool"
        }
      ],
      "name": "ApprovalForAll",
      "type": "event"
    },
    {
      "anonymous": false,
      "inputs": [
        {
          "indexed": true,
          "internalType": "address",
          "name": "previousOwner",
          "type": "address"
        },
        {
          "indexed": true,
          "internalType": "address",
          "name": "newOwner",
          "type": "address"
        }
      ],
      "name": "OwnershipTransferred",
      "type": "event"
    },
    {
      "anonymous": false,
      "inputs": [
        {
          "indexed": true,
          "internalType": "address",
          "name": "from",
          "type": "address"
        },
        {
          "indexed": true,
          "internalType": "address",
          "name": "to",
          "type": "address"
        },
        {
          "indexed": true,
          "internalType": "uint256",
          "name": "tokenId",
          "type": "uint256"
        }
      ],
      "name": "Transfer",
      "type": "event"
    },
    {
      "inputs": [],
      "name": "MAX_SUPPLY",
      "outputs": [
        {
          "internalType": "uint16",
          "name": "",
          "type": "uint16"
        }
      ],
      "stateMutability": "view",
      "type": "function"
    },
    {
      "inputs": [
        {
          "internalType": "address",
          "name": "to",
          "type": "address"
        },
        {
          "internalType": "uint256",
          "name": "tokenId",
          "type": "uint256"
        }
      ],
      "name": "approve",
      "outputs": [],
      "stateMutability": "nonpayable",
      "type": "function"
    },
    {
      "inputs": [
        {
          "internalType": "address",
          "name": "owner",
          "type": "address"
        }
      ],
      "name": "balanceOf",
      "outputs": [
        {
          "internalType": "uint256",
          "name": "",
          "type": "uint256"
        }
      ],
      "stateMutability": "view",
      "type": "function"
    },
    {
      "inputs": [],
      "name": "baseURI",
      "outputs": [
        {
          "internalType": "string",
          "name": "",
          "type": "string"
        }
      ],
      "stateMutability": "view",
      "type": "function"
    },
    {
      "inputs": [
        {
          "internalType": "string",
          "name": "baseURI_",
          "type": "string"
        }
      ],
      "name": "changeBaseURI",
      "outputs": [],
      "stateMutability": "nonpayable",
      "type": "function"
    },
    {
      "inputs": [],
      "name": "contractURI",
      "outputs": [
        {
          "internalType": "string",
          "name": "",
          "type": "string"
        }
      ],
      "stateMutability": "view",
      "type": "function"
    },
    {
      "inputs": [
        {
          "internalType": "uint256",
          "name": "tokenId",
          "type": "uint256"
        }
      ],
      "name": "getApproved",
      "outputs": [
        {
          "internalType": "address",
          "name": "",
          "type": "address"
        }
      ],
      "stateMutability": "view",
      "type": "function"
    },
    {
      "inputs": [
        {
          "internalType": "address",
          "name": "owner",
          "type": "address"
        },
        {
          "internalType": "address",
          "name": "operator",
          "type": "address"
        }
      ],
      "name": "isApprovedForAll",
      "outputs": [
        {
          "internalType": "bool",
          "name": "",
          "type": "bool"
        }
      ],
      "stateMutability": "view",
      "type": "function"
    },
    {
      "inputs": [],
      "name": "mintRate",
      "outputs": [
        {
          "internalType": "uint256",
          "name": "",
          "type": "uint256"
        }
      ],
      "stateMutability": "view",
      "type": "function"
    },
    {
      "inputs": [],
      "name": "name",
      "outputs": [
        {
          "internalType": "string",
          "name": "",
          "type": "string"
        }
      ],
      "stateMutability": "view",
      "type": "function"
    },
    {
      "inputs": [],
      "name": "owner",
      "outputs": [
        {
          "internalType": "address",
          "name": "",
          "type": "address"
        }
      ],
      "stateMutability": "view",
      "type": "function"
    },
    {
      "inputs": [
        {
          "internalType": "uint256",
          "name": "tokenId",
          "type": "uint256"
        }
      ],
      "name": "ownerOf",
      "outputs": [
        {
          "internalType": "address",
          "name": "",
          "type": "address"
        }
      ],
      "stateMutability": "view",
      "type": "function"
    },
    {
      "inputs": [],
      "name": "renounceOwnership",
      "outputs": [],
      "stateMutability": "nonpayable",
      "type": "function"
    },
    {
      "inputs": [],
      "name": "resetMintedUsers",
      "outputs": [],
      "stateMutability": "nonpayable",
      "type": "function"
    },
    {
      "inputs": [],
      "name": "royalty",
      "outputs": [
        {
          "internalType": "uint256",
          "name": "",
          "type": "uint256"
        }
      ],
      "stateMutability": "view",
      "type": "function"
    },
    {
      "inputs": [
        {
          "internalType": "uint256",
          "name": "",
          "type": "uint256"
        },
        {
          "internalType": "uint256",
          "name": "_salePrice",
          "type": "uint256"
        }
      ],
      "name": "royaltyInfo",
      "outputs": [
        {
          "internalType": "address",
          "name": "",
          "type": "address"
        },
        {
          "internalType": "uint256",
          "name": "",
          "type": "uint256"
        }
      ],
      "stateMutability": "view",
      "type": "function"
    },
    {
      "inputs": [],
      "name": "royaltyReceiver",
      "outputs": [
        {
          "internalType": "address",
          "name": "",
          "type": "address"
        }
      ],
      "stateMutability": "view",
      "type": "function"
    },
    {
      "inputs": [
        {
          "internalType": "address",
          "name": "from",
          "type": "address"
        },
        {
          "internalType": "address",
          "name": "to",
          "type": "address"
        },
        {
          "internalType": "uint256",
          "name": "tokenId",
          "type": "uint256"
        }
      ],
      "name": "safeTransferFrom",
      "outputs": [],
      "stateMutability": "nonpayable",
      "type": "function"
    },
    {
      "inputs": [
        {
          "internalType": "address",
          "name": "from",
          "type": "address"
        },
        {
          "internalType": "address",
          "name": "to",
          "type": "address"
        },
        {
          "internalType": "uint256",
          "name": "tokenId",
          "type": "uint256"
        },
        {
          "internalType": "bytes",
          "name": "data",
          "type": "bytes"
        }
      ],
      "name": "safeTransferFrom",
      "outputs": [],
      "stateMutability": "nonpayable",
      "type": "function"
    },
    {
      "inputs": [],
      "name": "saleActive",
      "outputs": [
        {
          "internalType": "bool",
          "name": "",
          "type": "bool"
        }
      ],
      "stateMutability": "view",
      "type": "function"
    },
    {
      "inputs": [
        {
          "internalType": "address",
          "name": "operator",
          "type": "address"
        },
        {
          "internalType": "bool",
          "name": "approved",
          "type": "bool"
        }
      ],
      "name": "setApprovalForAll",
      "outputs": [],
      "stateMutability": "nonpayable",
      "type": "function"
    },
    {
      "inputs": [
        {
          "internalType": "string",
          "name": "_contractURI",
          "type": "string"
        }
      ],
      "name": "setContractURI",
      "outputs": [],
      "stateMutability": "nonpayable",
      "type": "function"
    },
    {
      "inputs": [
        {
          "internalType": "uint256",
          "name": "_mintRate",
          "type": "uint256"
        }
      ],
      "name": "setMintRate",
      "outputs": [],
      "stateMutability": "nonpayable",
      "type": "function"
    },
    {
      "inputs": [
        {
          "internalType": "uint256",
          "name": "_royalty",
          "type": "uint256"
        }
      ],
      "name": "setRoyalty",
      "outputs": [],
      "stateMutability": "nonpayable",
      "type": "function"
    },
    {
      "inputs": [
        {
          "internalType": "address",
          "name": "royaltyReceiver_",
          "type": "address"
        }
      ],
      "name": "setRoyaltyReceiver",
      "outputs": [],
      "stateMutability": "nonpayable",
      "type": "function"
    },
    {
      "inputs": [
        {
          "internalType": "bool",
          "name": "_saleActive",
          "type": "bool"
        }
      ],
      "name": "setSaleActive",
      "outputs": [],
      "stateMutability": "nonpayable",
      "type": "function"
    },
    {
      "inputs": [
        {
          "internalType": "bytes4",
          "name": "interfaceId",
          "type": "bytes4"
        }
      ],
      "name": "supportsInterface",
      "outputs": [
        {
          "internalType": "bool",
          "name": "",
          "type": "bool"
        }
      ],
      "stateMutability": "view",
      "type": "function"
    },
    {
      "inputs": [],
      "name": "symbol",
      "outputs": [
        {
          "internalType": "string",
          "name": "",
          "type": "string"
        }
      ],
      "stateMutability": "view",
      "type": "function"
    },
    {
      "inputs": [
        {
          "internalType": "uint256",
          "name": "tokenId",
          "type": "uint256"
        }
      ],
      "name": "tokenURI",
      "outputs": [
        {
          "internalType": "string",
          "name": "",
          "type": "string"
        }
      ],
      "stateMutability": "view",
      "type": "function"
    },
    {
      "inputs": [],
      "name": "totalSupply",
      "outputs": [
        {
          "internalType": "uint16",
          "name": "",
          "type": "uint16"
        }
      ],
      "stateMutability": "view",
      "type": "function"
    },
    {
      "inputs": [
        {
          "internalType": "address",
          "name": "from",
          "type": "address"
        },
        {
          "internalType": "address",
          "name": "to",
          "type": "address"
        },
        {
          "internalType": "uint256",
          "name": "tokenId",
          "type": "uint256"
        }
      ],
      "name": "transferFrom",
      "outputs": [],
      "stateMutability": "nonpayable",
      "type": "function"
    },
    {
      "inputs": [
        {
          "internalType": "address",
          "name": "newOwner",
          "type": "address"
        }
      ],
      "name": "transferOwnership",
      "outputs": [],
      "stateMutability": "nonpayable",
      "type": "function"
    }
  ],
  "bytecode": "0x6006805462ffffff60b01b1916905560e0604052603660808181529062001cae60a03960099062000031908262000201565b503480156200003f57600080fd5b5060405162001ce438038062001ce483398101604081905262000062916200037c565b8484600062000072838262000201565b50600162000081828262000201565b5050506200009e620000986200010660201b60201c565b6200010a565b6008805461ffff191661ffff85161790556007829055620000c76006546001600160a01b031690565b600b80546001600160a01b0319166001600160a01b039290921691909117905560fa600c55600d620000fa828262000201565b50505050505062000433565b3390565b600680546001600160a01b038381166001600160a01b0319831681179093556040519116919082907f8be0079c531659141344cd1fd0a4f28419497f9722a3daafe3b4186f6b6457e090600090a35050565b634e487b7160e01b600052604160045260246000fd5b600181811c908216806200018757607f821691505b602082108103620001a857634e487b7160e01b600052602260045260246000fd5b50919050565b601f821115620001fc57600081815260208120601f850160051c81016020861015620001d75750805b601f850160051c820191505b81811015620001f857828155600101620001e3565b5050505b505050565b81516001600160401b038111156200021d576200021d6200015c565b62000235816200022e845462000172565b84620001ae565b602080601f8311600181146200026d5760008415620002545750858301515b600019600386901b1c1916600185901b178555620001f8565b600085815260208120601f198616915b828110156200029e578886015182559484019460019091019084016200027d565b5085821015620002bd5787850151600019600388901b60f8161c191681555b5050505050600190811b01905550565b600082601f830112620002df57600080fd5b81516001600160401b0380821115620002fc57620002fc6200015c565b604051601f8301601f19908116603f011681019082821181831017156200032757620003276200015c565b816040528381526020925086838588010111156200034457600080fd5b600091505b8382101562000368578582018301518183018401529082019062000349565b600093810190920192909252949350505050565b600080600080600060a086880312156200039557600080fd5b85516001600160401b0380821115620003ad57600080fd5b620003bb89838a01620002cd565b96506020880151915080821115620003d257600080fd5b620003e089838a01620002cd565b95506040880151915061ffff82168214620003fa57600080fd5b606088015160808901519295509350808211156200041757600080fd5b506200042688828901620002cd565b9150509295509295909350565b61186b80620004436000396000f3fe608060405234801561001057600080fd5b50600436106101ef5760003560e01c806370a082311161010f578063a22cb465116100a2578063dbe2193f11610071578063dbe2193f1461042f578063e8a3d48514610442578063e985e9c51461044a578063f2fde38b1461045d57600080fd5b8063a22cb465146103ed578063b88d4fde14610400578063c87b56dd14610413578063ca0dcf161461042657600080fd5b80638dc251e3116100de5780638dc251e3146103ac578063938e3d7b146103bf57806395d89b41146103d25780639fbc8713146103da57600080fd5b806370a082311461036d578063715018a614610380578063841718a6146103885780638da5cb5b1461039b57600080fd5b80632a55205a1161018757806342842e0e1161015657806342842e0e1461032b5780636352211e1461033e57806368428a1b146103515780636c0360eb1461036557600080fd5b80632a55205a146102c557806332cb6b0c146102f757806339a0c6f9146103055780634209a2e11461031857600080fd5b8063095ea7b3116101c3578063095ea7b31461026657806318160ddd1461027957806323b872dd1461029b57806329ee566c146102ae57600080fd5b8062717153146101f457806301ffc9a7146101fe57806306fdde0314610226578063081812fc1461023b575b600080fd5b6101fc610470565b005b61021161020c3660046111de565b6104b4565b60405190151581526020015b60405180910390f35b61022e6104df565b60405161021d919061124b565b61024e61024936600461125e565b610571565b6040516001600160a01b03909116815260200161021d565b6101fc610274366004611293565b610598565b600654600160a01b900461ffff165b60405161ffff909116815260200161021d565b6101fc6102a93660046112bd565b6106b2565b6102b7600c5481565b60405190815260200161021d565b6102d86102d33660046112f9565b6106e3565b604080516001600160a01b03909316835260208301919091520161021d565b6008546102889061ffff1681565b6101fc6103133660046113a7565b61071a565b6101fc61032636600461125e565b610732565b6101fc6103393660046112bd565b61073f565b61024e61034c36600461125e565b61075a565b60065461021190600160c01b900460ff1681565b61022e6107ba565b6102b761037b3660046113f0565b610848565b6101fc6108ce565b6101fc61039636600461141b565b6108e2565b6006546001600160a01b031661024e565b6101fc6103ba3660046113f0565b610908565b6101fc6103cd3660046113a7565b610932565b61022e610946565b600b5461024e906001600160a01b031681565b6101fc6103fb366004611436565b610955565b6101fc61040e366004611469565b610960565b61022e61042136600461125e565b610998565b6102b760075481565b6101fc61043d36600461125e565b6109ff565b61022e610a0c565b6102116104583660046114e5565b610a19565b6101fc61046b3660046113f0565b610a47565b610478610ac0565b6001600660168282829054906101000a900461ffff166104989190611525565b92506101000a81548161ffff021916908361ffff160217905550565b60006001600160e01b0319821663152a902d60e11b14806104d957506104d982610b1a565b92915050565b6060600080546104ee90611547565b80601f016020809104026020016040519081016040528092919081815260200182805461051a90611547565b80156105675780601f1061053c57610100808354040283529160200191610567565b820191906000526020600020905b81548152906001019060200180831161054a57829003601f168201915b5050505050905090565b600061057c82610b6a565b506000908152600460205260409020546001600160a01b031690565b60006105a38261075a565b9050806001600160a01b0316836001600160a01b0316036106155760405162461bcd60e51b815260206004820152602160248201527f4552433732313a20617070726f76616c20746f2063757272656e74206f776e656044820152603960f91b60648201526084015b60405180910390fd5b336001600160a01b038216148061063157506106318133610a19565b6106a35760405162461bcd60e51b815260206004820152603d60248201527f4552433732313a20617070726f76652063616c6c6572206973206e6f7420746f60448201527f6b656e206f776e6572206f7220617070726f76656420666f7220616c6c000000606482015260840161060c565b6106ad8383610bc9565b505050565b6106bc3382610c37565b6106d85760405162461bcd60e51b815260040161060c90611581565b6106ad838383610c96565b6000806000612710600c54856106f991906115ce565b61070391906115e5565b600b546001600160a01b0316969095509350505050565b610722610ac0565b600961072e8282611655565b5050565b61073a610ac0565b600c55565b6106ad83838360405180602001604052806000815250610960565b6000818152600260205260408120546001600160a01b0316806104d95760405162461bcd60e51b8152602060048201526018602482015277115490cdcc8c4e881a5b9d985b1a59081d1bdad95b88125160421b604482015260640161060c565b600980546107c790611547565b80601f01602080910402602001604051908101604052809291908181526020018280546107f390611547565b80156108405780601f1061081557610100808354040283529160200191610840565b820191906000526020600020905b81548152906001019060200180831161082357829003601f168201915b505050505081565b60006001600160a01b0382166108b25760405162461bcd60e51b815260206004820152602960248201527f4552433732313a2061646472657373207a65726f206973206e6f7420612076616044820152683634b21037bbb732b960b91b606482015260840161060c565b506001600160a01b031660009081526003602052604090205490565b6108d6610ac0565b6108e06000610dfa565b565b6108ea610ac0565b60068054911515600160c01b0260ff60c01b19909216919091179055565b610910610ac0565b600b80546001600160a01b0319166001600160a01b0392909216919091179055565b61093a610ac0565b600d61072e8282611655565b6060600180546104ee90611547565b61072e338383610e4c565b61096a3383610c37565b6109865760405162461bcd60e51b815260040161060c90611581565b61099284848484610f1a565b50505050565b60606109a382610b6a565b60006109ad610f4d565b905060008151116109cd57604051806020016040528060008152506109f8565b806109d784610f5c565b6040516020016109e8929190611715565b6040516020818303038152906040525b9392505050565b610a07610ac0565b600755565b600d80546107c790611547565b6001600160a01b03918216600090815260056020908152604080832093909416825291909152205460ff1690565b610a4f610ac0565b6001600160a01b038116610ab45760405162461bcd60e51b815260206004820152602660248201527f4f776e61626c653a206e6577206f776e657220697320746865207a65726f206160448201526564647265737360d01b606482015260840161060c565b610abd81610dfa565b50565b6006546001600160a01b031633146108e05760405162461bcd60e51b815260206004820181905260248201527f4f776e61626c653a2063616c6c6572206973206e6f7420746865206f776e6572604482015260640161060c565b60006001600160e01b031982166380ac58cd60e01b1480610b4b57506001600160e01b03198216635b5e139f60e01b145b806104d957506301ffc9a760e01b6001600160e01b03198316146104d9565b6000818152600260205260409020546001600160a01b0316610abd5760405162461bcd60e51b8152602060048201526018602482015277115490cdcc8c4e881a5b9d985b1a59081d1bdad95b88125160421b604482015260640161060c565b600081815260046020526040902080546001600160a01b0319166001600160a01b0384169081179091558190610bfe8261075a565b6001600160a01b03167f8c5be1e5ebec7d5bd14f71427d1e84f3dd0314c0f7b2291e5b200ac8c7c3b92560405160405180910390a45050565b600080610c438361075a565b9050806001600160a01b0316846001600160a01b03161480610c6a5750610c6a8185610a19565b80610c8e5750836001600160a01b0316610c8384610571565b6001600160a01b0316145b949350505050565b826001600160a01b0316610ca98261075a565b6001600160a01b031614610ccf5760405162461bcd60e51b815260040161060c90611744565b6001600160a01b038216610d315760405162461bcd60e51b8152602060048201526024808201527f4552433732313a207472616e7366657220746f20746865207a65726f206164646044820152637265737360e01b606482015260840161060c565b826001600160a01b0316610d448261075a565b6001600160a01b031614610d6a5760405162461bcd60e51b815260040161060c90611744565b600081815260046020908152604080832080546001600160a01b03199081169091556001600160a01b0387811680865260038552838620805460001901905590871680865283862080546001019055868652600290945282852080549092168417909155905184937fddf252ad1be2c89b69c2b068fc378daa952ba7f163c4a11628f55a4df523b3ef91a4505050565b600680546001600160a01b038381166001600160a01b0319831681179093556040519116919082907f8be0079c531659141344cd1fd0a4f28419497f9722a3daafe3b4186f6b6457e090600090a35050565b816001600160a01b0316836001600160a01b031603610ead5760405162461bcd60e51b815260206004820152601960248201527f4552433732313a20617070726f766520746f2063616c6c657200000000000000604482015260640161060c565b6001600160a01b03838116600081815260056020908152604080832094871680845294825291829020805460ff191686151590811790915591519182527f17307eab39ab6107e8899845ad3d59bd9653f200f220920489ca2b5937696c31910160405180910390a3505050565b610f25848484610c96565b610f3184848484610fef565b6109925760405162461bcd60e51b815260040161060c90611789565b6060600980546104ee90611547565b60606000610f69836110f0565b600101905060008167ffffffffffffffff811115610f8957610f8961131b565b6040519080825280601f01601f191660200182016040528015610fb3576020820181803683370190505b5090508181016020015b600019016f181899199a1a9b1b9c1cb0b131b232b360811b600a86061a8153600a8504945084610fbd57509392505050565b60006001600160a01b0384163b156110e557604051630a85bd0160e11b81526001600160a01b0385169063150b7a02906110339033908990889088906004016117db565b6020604051808303816000875af192505050801561106e575060408051601f3d908101601f1916820190925261106b91810190611818565b60015b6110cb573d80801561109c576040519150601f19603f3d011682016040523d82523d6000602084013e6110a1565b606091505b5080516000036110c35760405162461bcd60e51b815260040161060c90611789565b805181602001fd5b6001600160e01b031916630a85bd0160e11b149050610c8e565b506001949350505050565b60008072184f03e93ff9f4daa797ed6e38ed64bf6a1f0160401b831061112f5772184f03e93ff9f4daa797ed6e38ed64bf6a1f0160401b830492506040015b6d04ee2d6d415b85acef8100000000831061115b576d04ee2d6d415b85acef8100000000830492506020015b662386f26fc10000831061117957662386f26fc10000830492506010015b6305f5e1008310611191576305f5e100830492506008015b61271083106111a557612710830492506004015b606483106111b7576064830492506002015b600a83106104d95760010192915050565b6001600160e01b031981168114610abd57600080fd5b6000602082840312156111f057600080fd5b81356109f8816111c8565b60005b838110156112165781810151838201526020016111fe565b50506000910152565b600081518084526112378160208601602086016111fb565b601f01601f19169290920160200192915050565b6020815260006109f8602083018461121f565b60006020828403121561127057600080fd5b5035919050565b80356001600160a01b038116811461128e57600080fd5b919050565b600080604083850312156112a657600080fd5b6112af83611277565b946020939093013593505050565b6000806000606084860312156112d257600080fd5b6112db84611277565b92506112e960208501611277565b9150604084013590509250925092565b6000806040838503121561130c57600080fd5b50508035926020909101359150565b634e487b7160e01b600052604160045260246000fd5b600067ffffffffffffffff8084111561134c5761134c61131b565b604051601f8501601f19908116603f011681019082821181831017156113745761137461131b565b8160405280935085815286868601111561138d57600080fd5b858560208301376000602087830101525050509392505050565b6000602082840312156113b957600080fd5b813567ffffffffffffffff8111156113d057600080fd5b8201601f810184136113e157600080fd5b610c8e84823560208401611331565b60006020828403121561140257600080fd5b6109f882611277565b8035801515811461128e57600080fd5b60006020828403121561142d57600080fd5b6109f88261140b565b6000806040838503121561144957600080fd5b61145283611277565b91506114606020840161140b565b90509250929050565b6000806000806080858703121561147f57600080fd5b61148885611277565b935061149660208601611277565b925060408501359150606085013567ffffffffffffffff8111156114b957600080fd5b8501601f810187136114ca57600080fd5b6114d987823560208401611331565b91505092959194509250565b600080604083850312156114f857600080fd5b61150183611277565b915061146060208401611277565b634e487b7160e01b600052601160045260246000fd5b61ffff8181168382160190808211156115405761154061150f565b5092915050565b600181811c9082168061155b57607f821691505b60208210810361157b57634e487b7160e01b600052602260045260246000fd5b50919050565b6020808252602d908201527f4552433732313a2063616c6c6572206973206e6f7420746f6b656e206f776e6560408201526c1c881bdc88185c1c1c9bdd9959609a1b606082015260800190565b80820281158282048414176104d9576104d961150f565b60008261160257634e487b7160e01b600052601260045260246000fd5b500490565b601f8211156106ad57600081815260208120601f850160051c8101602086101561162e5750805b601f850160051c820191505b8181101561164d5782815560010161163a565b505050505050565b815167ffffffffffffffff81111561166f5761166f61131b565b6116838161167d8454611547565b84611607565b602080601f8311600181146116b857600084156116a05750858301515b600019600386901b1c1916600185901b17855561164d565b600085815260208120601f198616915b828110156116e7578886015182559484019460019091019084016116c8565b50858210156117055787850151600019600388901b60f8161c191681555b5050505050600190811b01905550565b600083516117278184602088016111fb565b83519083019061173b8183602088016111fb565b01949350505050565b60208082526025908201527f4552433732313a207472616e736665722066726f6d20696e636f72726563742060408201526437bbb732b960d91b606082015260800190565b60208082526032908201527f4552433732313a207472616e7366657220746f206e6f6e20455243373231526560408201527131b2b4bb32b91034b6b83632b6b2b73a32b960711b606082015260800190565b6001600160a01b038581168252841660208201526040810183905260806060820181905260009061180e9083018461121f565b9695505050505050565b60006020828403121561182a57600080fd5b81516109f8816111c856fea2646970667358221220bc708ca548a644c21332a5c908757390498717af6e6324e0f66f75758204b39064736f6c63430008110033697066733a2f2f516d576951453635746d70597a636f6b436865516d6e673244434d33334445686a586350423650616e7770415a6f2f",
  "linkReferences": {},
  "deployedLinkReferences": {}
}