{
  "_format": "hh-sol-artifact-1",
  "contractName": "CryptoHomiesCommon",
  "sourceName": "contracts/CryptoHomiesCommon.sol",
  "abi": [
    {
      "inputs": [
        {
          "internalType": "address",
          "name": "owner",
          "type": "address"
        },
        {
          "internalType": "string",
          "name": "_contractURI",
          "type": "string"
        }
      ],
      "stateMutability": "nonpayable",
      "type": "constructor"
    },
    {
      "anonymous": false,
      "inputs": [
        {
          "indexed": true,
          "internalType": "address",
          "name": "owner",
          "type": "address"
        },
        {
          "indexed": true,
          "internalType": "address",
          "name": "approved",
          "type": "address"
        },
        {
          "indexed": true,
          "internalType": "uint256",
          "name": "tokenId",
          "type": "uint256"
        }
      ],
      "name": "Approval",
      "type": "event"
    },
    {
      "anonymous": false,
      "inputs": [
        {
          "indexed": true,
          "internalType": "address",
          "name": "owner",
          "type": "address"
        },
        {
          "indexed": true,
          "internalType": "address",
          "name": "operator",
          "type": "address"
        },
        {
          "indexed": false,
          "internalType": "bool",
          "name": "approved",
          "type": "bool"
        }
      ],
      "name": "ApprovalForAll",
      "type": "event"
    },
    {
      "anonymous": false,
      "inputs": [
        {
          "indexed": true,
          "internalType": "address",
          "name": "previousOwner",
          "type": "address"
        },
        {
          "indexed": true,
          "internalType": "address",
          "name": "newOwner",
          "type": "address"
        }
      ],
      "name": "OwnershipTransferred",
      "type": "event"
    },
    {
      "anonymous": false,
      "inputs": [
        {
          "indexed": true,
          "internalType": "address",
          "name": "from",
          "type": "address"
        },
        {
          "indexed": true,
          "internalType": "address",
          "name": "to",
          "type": "address"
        },
        {
          "indexed": true,
          "internalType": "uint256",
          "name": "tokenId",
          "type": "uint256"
        }
      ],
      "name": "Transfer",
      "type": "event"
    },
    {
      "inputs": [],
      "name": "MAX_SUPPLY",
      "outputs": [
        {
          "internalType": "uint16",
          "name": "",
          "type": "uint16"
        }
      ],
      "stateMutability": "view",
      "type": "function"
    },
    {
      "inputs": [
        {
          "internalType": "address",
          "name": "to",
          "type": "address"
        },
        {
          "internalType": "uint256",
          "name": "tokenId",
          "type": "uint256"
        }
      ],
      "name": "approve",
      "outputs": [],
      "stateMutability": "nonpayable",
      "type": "function"
    },
    {
      "inputs": [
        {
          "internalType": "address",
          "name": "owner",
          "type": "address"
        }
      ],
      "name": "balanceOf",
      "outputs": [
        {
          "internalType": "uint256",
          "name": "",
          "type": "uint256"
        }
      ],
      "stateMutability": "view",
      "type": "function"
    },
    {
      "inputs": [],
      "name": "baseURI",
      "outputs": [
        {
          "internalType": "string",
          "name": "",
          "type": "string"
        }
      ],
      "stateMutability": "view",
      "type": "function"
    },
    {
      "inputs": [
        {
          "internalType": "string",
          "name": "baseURI_",
          "type": "string"
        }
      ],
      "name": "changeBaseURI",
      "outputs": [],
      "stateMutability": "nonpayable",
      "type": "function"
    },
    {
      "inputs": [
        {
          "internalType": "uint16",
          "name": "_mintLimitPerTransaction",
          "type": "uint16"
        }
      ],
      "name": "changeMintLimitPerTransaction",
      "outputs": [],
      "stateMutability": "nonpayable",
      "type": "function"
    },
    {
      "inputs": [
        {
          "internalType": "uint16",
          "name": "_mintsWithGenesis",
          "type": "uint16"
        }
      ],
      "name": "changeMintsWithGenesis",
      "outputs": [],
      "stateMutability": "nonpayable",
      "type": "function"
    },
    {
      "inputs": [],
      "name": "contractURI",
      "outputs": [
        {
          "internalType": "string",
          "name": "",
          "type": "string"
        }
      ],
      "stateMutability": "view",
      "type": "function"
    },
    {
      "inputs": [],
      "name": "genesisContract",
      "outputs": [
        {
          "internalType": "address",
          "name": "",
          "type": "address"
        }
      ],
      "stateMutability": "view",
      "type": "function"
    },
    {
      "inputs": [
        {
          "internalType": "uint256",
          "name": "tokenId",
          "type": "uint256"
        }
      ],
      "name": "getApproved",
      "outputs": [
        {
          "internalType": "address",
          "name": "",
          "type": "address"
        }
      ],
      "stateMutability": "view",
      "type": "function"
    },
    {
      "inputs": [
        {
          "internalType": "address",
          "name": "owner",
          "type": "address"
        },
        {
          "internalType": "address",
          "name": "operator",
          "type": "address"
        }
      ],
      "name": "isApprovedForAll",
      "outputs": [
        {
          "internalType": "bool",
          "name": "",
          "type": "bool"
        }
      ],
      "stateMutability": "view",
      "type": "function"
    },
    {
      "inputs": [
        {
          "internalType": "uint16",
          "name": "_amount",
          "type": "uint16"
        }
      ],
      "name": "mint",
      "outputs": [],
      "stateMutability": "payable",
      "type": "function"
    },
    {
      "inputs": [],
      "name": "mintLimitPerTransaction",
      "outputs": [
        {
          "internalType": "uint16",
          "name": "",
          "type": "uint16"
        }
      ],
      "stateMutability": "view",
      "type": "function"
    },
    {
      "inputs": [],
      "name": "mintRate",
      "outputs": [
        {
          "internalType": "uint256",
          "name": "",
          "type": "uint256"
        }
      ],
      "stateMutability": "view",
      "type": "function"
    },
    {
      "inputs": [
        {
          "internalType": "address",
          "name": "_to",
          "type": "address"
        }
      ],
      "name": "mintWithGenesis",
      "outputs": [
        {
          "internalType": "bool",
          "name": "",
          "type": "bool"
        }
      ],
      "stateMutability": "nonpayable",
      "type": "function"
    },
    {
      "inputs": [],
      "name": "mintsWithGenesis",
      "outputs": [
        {
          "internalType": "uint16",
          "name": "",
          "type": "uint16"
        }
      ],
      "stateMutability": "view",
      "type": "function"
    },
    {
      "inputs": [],
      "name": "name",
      "outputs": [
        {
          "internalType": "string",
          "name": "",
          "type": "string"
        }
      ],
      "stateMutability": "view",
      "type": "function"
    },
    {
      "inputs": [],
      "name": "owner",
      "outputs": [
        {
          "internalType": "address",
          "name": "",
          "type": "address"
        }
      ],
      "stateMutability": "view",
      "type": "function"
    },
    {
      "inputs": [
        {
          "internalType": "uint256",
          "name": "tokenId",
          "type": "uint256"
        }
      ],
      "name": "ownerOf",
      "outputs": [
        {
          "internalType": "address",
          "name": "",
          "type": "address"
        }
      ],
      "stateMutability": "view",
      "type": "function"
    },
    {
      "inputs": [],
      "name": "renounceOwnership",
      "outputs": [],
      "stateMutability": "nonpayable",
      "type": "function"
    },
    {
      "inputs": [],
      "name": "resetMintedUsers",
      "outputs": [],
      "stateMutability": "nonpayable",
      "type": "function"
    },
    {
      "inputs": [],
      "name": "royalty",
      "outputs": [
        {
          "internalType": "uint256",
          "name": "",
          "type": "uint256"
        }
      ],
      "stateMutability": "view",
      "type": "function"
    },
    {
      "inputs": [
        {
          "internalType": "uint256",
          "name": "",
          "type": "uint256"
        },
        {
          "internalType": "uint256",
          "name": "_salePrice",
          "type": "uint256"
        }
      ],
      "name": "royaltyInfo",
      "outputs": [
        {
          "internalType": "address",
          "name": "",
          "type": "address"
        },
        {
          "internalType": "uint256",
          "name": "",
          "type": "uint256"
        }
      ],
      "stateMutability": "view",
      "type": "function"
    },
    {
      "inputs": [],
      "name": "royaltyReceiver",
      "outputs": [
        {
          "internalType": "address",
          "name": "",
          "type": "address"
        }
      ],
      "stateMutability": "view",
      "type": "function"
    },
    {
      "inputs": [
        {
          "internalType": "address",
          "name": "from",
          "type": "address"
        },
        {
          "internalType": "address",
          "name": "to",
          "type": "address"
        },
        {
          "internalType": "uint256",
          "name": "tokenId",
          "type": "uint256"
        }
      ],
      "name": "safeTransferFrom",
      "outputs": [],
      "stateMutability": "nonpayable",
      "type": "function"
    },
    {
      "inputs": [
        {
          "internalType": "address",
          "name": "from",
          "type": "address"
        },
        {
          "internalType": "address",
          "name": "to",
          "type": "address"
        },
        {
          "internalType": "uint256",
          "name": "tokenId",
          "type": "uint256"
        },
        {
          "internalType": "bytes",
          "name": "data",
          "type": "bytes"
        }
      ],
      "name": "safeTransferFrom",
      "outputs": [],
      "stateMutability": "nonpayable",
      "type": "function"
    },
    {
      "inputs": [],
      "name": "saleActive",
      "outputs": [
        {
          "internalType": "bool",
          "name": "",
          "type": "bool"
        }
      ],
      "stateMutability": "view",
      "type": "function"
    },
    {
      "inputs": [
        {
          "internalType": "address",
          "name": "operator",
          "type": "address"
        },
        {
          "internalType": "bool",
          "name": "approved",
          "type": "bool"
        }
      ],
      "name": "setApprovalForAll",
      "outputs": [],
      "stateMutability": "nonpayable",
      "type": "function"
    },
    {
      "inputs": [
        {
          "internalType": "string",
          "name": "_contractURI",
          "type": "string"
        }
      ],
      "name": "setContractURI",
      "outputs": [],
      "stateMutability": "nonpayable",
      "type": "function"
    },
    {
      "inputs": [
        {
          "internalType": "uint256",
          "name": "_mintRate",
          "type": "uint256"
        }
      ],
      "name": "setMintRate",
      "outputs": [],
      "stateMutability": "nonpayable",
      "type": "function"
    },
    {
      "inputs": [
        {
          "internalType": "uint256",
          "name": "_royalty",
          "type": "uint256"
        }
      ],
      "name": "setRoyalty",
      "outputs": [],
      "stateMutability": "nonpayable",
      "type": "function"
    },
    {
      "inputs": [
        {
          "internalType": "address",
          "name": "royaltyReceiver_",
          "type": "address"
        }
      ],
      "name": "setRoyaltyReceiver",
      "outputs": [],
      "stateMutability": "nonpayable",
      "type": "function"
    },
    {
      "inputs": [
        {
          "internalType": "bool",
          "name": "_saleActive",
          "type": "bool"
        }
      ],
      "name": "setSaleActive",
      "outputs": [],
      "stateMutability": "nonpayable",
      "type": "function"
    },
    {
      "inputs": [
        {
          "internalType": "bytes4",
          "name": "interfaceId",
          "type": "bytes4"
        }
      ],
      "name": "supportsInterface",
      "outputs": [
        {
          "internalType": "bool",
          "name": "",
          "type": "bool"
        }
      ],
      "stateMutability": "view",
      "type": "function"
    },
    {
      "inputs": [],
      "name": "symbol",
      "outputs": [
        {
          "internalType": "string",
          "name": "",
          "type": "string"
        }
      ],
      "stateMutability": "view",
      "type": "function"
    },
    {
      "inputs": [
        {
          "internalType": "uint256",
          "name": "tokenId",
          "type": "uint256"
        }
      ],
      "name": "tokenURI",
      "outputs": [
        {
          "internalType": "string",
          "name": "",
          "type": "string"
        }
      ],
      "stateMutability": "view",
      "type": "function"
    },
    {
      "inputs": [],
      "name": "totalSupply",
      "outputs": [
        {
          "internalType": "uint16",
          "name": "",
          "type": "uint16"
        }
      ],
      "stateMutability": "view",
      "type": "function"
    },
    {
      "inputs": [
        {
          "internalType": "address",
          "name": "from",
          "type": "address"
        },
        {
          "internalType": "address",
          "name": "to",
          "type": "address"
        },
        {
          "internalType": "uint256",
          "name": "tokenId",
          "type": "uint256"
        }
      ],
      "name": "transferFrom",
      "outputs": [],
      "stateMutability": "nonpayable",
      "type": "function"
    },
    {
      "inputs": [
        {
          "internalType": "address",
          "name": "newOwner",
          "type": "address"
        }
      ],
      "name": "transferOwnership",
      "outputs": [],
      "stateMutability": "nonpayable",
      "type": "function"
    }
  ],
  "bytecode": "0x6006805462ffffff60b01b1916905560e060405260366080818152906200251d60a03960099062000031908262000291565b50600e805463ffffffff60a01b19166203000360a01b1790553480156200005757600080fd5b5060405162002553380380620025538339810160408190526200007a916200035d565b6040518060400160405280601281526020017121b93cb83a37a437b6b4b2b9a1b7b6b6b7b760711b8152506040518060400160405280600381526020016243484360e81b81525061504067016345785d8a00008484848160009081620000e1919062000291565b506001620000f0828262000291565b5050506200010d620001076200019660201b60201c565b6200019a565b6008805461ffff191661ffff85161790556007829055620001366006546001600160a01b031690565b600b80546001600160a01b0319166001600160a01b039290921691909117905560fa600c55600d62000169828262000291565b5050600e80546001600160a01b03191633179055506200018e9250849150506200019a565b505062000453565b3390565b600680546001600160a01b038381166001600160a01b0319831681179093556040519116919082907f8be0079c531659141344cd1fd0a4f28419497f9722a3daafe3b4186f6b6457e090600090a35050565b634e487b7160e01b600052604160045260246000fd5b600181811c908216806200021757607f821691505b6020821081036200023857634e487b7160e01b600052602260045260246000fd5b50919050565b601f8211156200028c57600081815260208120601f850160051c81016020861015620002675750805b601f850160051c820191505b81811015620002885782815560010162000273565b5050505b505050565b81516001600160401b03811115620002ad57620002ad620001ec565b620002c581620002be845462000202565b846200023e565b602080601f831160018114620002fd5760008415620002e45750858301515b600019600386901b1c1916600185901b17855562000288565b600085815260208120601f198616915b828110156200032e578886015182559484019460019091019084016200030d565b50858210156200034d5787850151600019600388901b60f8161c191681555b5050505050600190811b01905550565b600080604083850312156200037157600080fd5b82516001600160a01b03811681146200038957600080fd5b602084810151919350906001600160401b0380821115620003a957600080fd5b818601915086601f830112620003be57600080fd5b815181811115620003d357620003d3620001ec565b604051601f8201601f19908116603f01168101908382118183101715620003fe57620003fe620001ec565b8160405282815289868487010111156200041757600080fd5b600093505b828410156200043b57848401860151818501870152928501926200041c565b60008684830101528096505050505050509250929050565b6120ba80620004636000396000f3fe60806040526004361061022f5760003560e01c806370a082311161012e578063a22cb465116100ab578063d8e99f921161006f578063d8e99f9214610692578063dbe2193f146106b2578063e8a3d485146106d2578063e985e9c5146106e7578063f2fde38b1461070757600080fd5b8063a22cb465146105fa578063b15c4dd01461061a578063b88d4fde1461063c578063c87b56dd1461065c578063ca0dcf161461067c57600080fd5b80638da5cb5b116100f25780638da5cb5b146105675780638dc251e314610585578063938e3d7b146105a557806395d89b41146105c55780639fbc8713146105da57600080fd5b806370a08231146104d0578063715018a6146104f0578063735577fc146105055780637de224b714610527578063841718a61461054757600080fd5b80632a55205a116101bc5780634209a2e1116101805780634209a2e11461043a57806342842e0e1461045a5780636352211e1461047a57806368428a1b1461049a5780636c0360eb146104bb57600080fd5b80632a55205a146103805780632b3e62d3146103bf57806330aefb61146103df57806332cb6b0c146103ff57806339a0c6f91461041a57600080fd5b8063095ea7b311610203578063095ea7b3146102da57806318160ddd146102fa57806323b872dd1461032957806323cf0a221461034957806329ee566c1461035c57600080fd5b80627171531461023457806301ffc9a71461024b57806306fdde0314610280578063081812fc146102a2575b600080fd5b34801561024057600080fd5b50610249610727565b005b34801561025757600080fd5b5061026b6102663660046119ed565b61076b565b60405190151581526020015b60405180910390f35b34801561028c57600080fd5b50610295610796565b6040516102779190611a5a565b3480156102ae57600080fd5b506102c26102bd366004611a6d565b610828565b6040516001600160a01b039091168152602001610277565b3480156102e657600080fd5b506102496102f5366004611a9d565b61084f565b34801561030657600080fd5b50600654600160a01b900461ffff165b60405161ffff9091168152602001610277565b34801561033557600080fd5b50610249610344366004611ac7565b610969565b610249610357366004611b03565b61099a565b34801561036857600080fd5b50610372600c5481565b604051908152602001610277565b34801561038c57600080fd5b506103a061039b366004611b27565b610bdc565b604080516001600160a01b039093168352602083019190915201610277565b3480156103cb57600080fd5b506102496103da366004611b03565b610c13565b3480156103eb57600080fd5b506102496103fa366004611b03565b610c3d565b34801561040b57600080fd5b506008546103169061ffff1681565b34801561042657600080fd5b50610249610435366004611bd5565b610c67565b34801561044657600080fd5b50610249610455366004611a6d565b610c7f565b34801561046657600080fd5b50610249610475366004611ac7565b610c8c565b34801561048657600080fd5b506102c2610495366004611a6d565b610ca7565b3480156104a657600080fd5b5060065461026b90600160c01b900460ff1681565b3480156104c757600080fd5b50610295610d07565b3480156104dc57600080fd5b506103726104eb366004611c1e565b610d95565b3480156104fc57600080fd5b50610249610e1b565b34801561051157600080fd5b50600e5461031690600160a01b900461ffff1681565b34801561053357600080fd5b5061026b610542366004611c1e565b610e2f565b34801561055357600080fd5b50610249610562366004611c49565b610ec6565b34801561057357600080fd5b506006546001600160a01b03166102c2565b34801561059157600080fd5b506102496105a0366004611c1e565b610eec565b3480156105b157600080fd5b506102496105c0366004611bd5565b610f16565b3480156105d157600080fd5b50610295610f2a565b3480156105e657600080fd5b50600b546102c2906001600160a01b031681565b34801561060657600080fd5b50610249610615366004611c64565b610f39565b34801561062657600080fd5b50600e5461031690600160b01b900461ffff1681565b34801561064857600080fd5b50610249610657366004611c97565b610f44565b34801561066857600080fd5b50610295610677366004611a6d565b610f7c565b34801561068857600080fd5b5061037260075481565b34801561069e57600080fd5b50600e546102c2906001600160a01b031681565b3480156106be57600080fd5b506102496106cd366004611a6d565b610fe3565b3480156106de57600080fd5b50610295610ff0565b3480156106f357600080fd5b5061026b610702366004611d13565b610ffd565b34801561071357600080fd5b50610249610722366004611c1e565b61102b565b61072f6110a4565b6001600660168282829054906101000a900461ffff1661074f9190611d53565b92506101000a81548161ffff021916908361ffff160217905550565b60006001600160e01b0319821663152a902d60e11b14806107905750610790826110fe565b92915050565b6060600080546107a590611d75565b80601f01602080910402602001604051908101604052809291908181526020018280546107d190611d75565b801561081e5780601f106107f35761010080835404028352916020019161081e565b820191906000526020600020905b81548152906001019060200180831161080157829003601f168201915b5050505050905090565b60006108338261114e565b506000908152600460205260409020546001600160a01b031690565b600061085a82610ca7565b9050806001600160a01b0316836001600160a01b0316036108cc5760405162461bcd60e51b815260206004820152602160248201527f4552433732313a20617070726f76616c20746f2063757272656e74206f776e656044820152603960f91b60648201526084015b60405180910390fd5b336001600160a01b03821614806108e857506108e88133610ffd565b61095a5760405162461bcd60e51b815260206004820152603d60248201527f4552433732313a20617070726f76652063616c6c6572206973206e6f7420746f60448201527f6b656e206f776e6572206f7220617070726f76656420666f7220616c6c00000060648201526084016108c3565b61096483836111ad565b505050565b610973338261121b565b61098f5760405162461bcd60e51b81526004016108c390611daf565b61096483838361127a565b600654600160c01b900460ff166109e55760405162461bcd60e51b815260206004820152600f60248201526e53616c65206e6f742061637469766560881b60448201526064016108c3565b600e5461ffff600160b01b90910481169082161115610a3f5760405162461bcd60e51b8152602060048201526016602482015275135a5b9d1a5b99c81b1a5b5a5d08195e18d95959195960521b60448201526064016108c3565b8061ffff16600754610a519190611dfc565b341015610a985760405162461bcd60e51b8152602060048201526015602482015274139bdd08195b9bdd59da08195d1a195c881cd95b9d605a1b60448201526064016108c3565b600654600160b01b900461ffff166000908152600a6020908152604080832033845290915290205460ff1615610b105760405162461bcd60e51b815260206004820152601760248201527f5573657220686173206d696e74656420616c726561647900000000000000000060448201526064016108c3565b60085460065461ffff91821691610b31918491600160a01b90910416611d53565b61ffff1610610b775760405162461bcd60e51b8152602060048201526012602482015271139bc81b5bdc99481a5d195b5cc81b19599d60721b60448201526064016108c3565b60005b8161ffff168161ffff161015610ba557610b93336113de565b80610b9d81611e13565b915050610b7a565b505060065461ffff600160b01b909104166000908152600a602090815260408083203384529091529020805460ff19166001179055565b6000806000612710600c5485610bf29190611dfc565b610bfc9190611e34565b600b546001600160a01b0316969095509350505050565b610c1b6110a4565b600e805461ffff909216600160a01b0261ffff60a01b19909216919091179055565b610c456110a4565b600e805461ffff909216600160b01b0261ffff60b01b19909216919091179055565b610c6f6110a4565b6009610c7b8282611ea4565b5050565b610c876110a4565b600c55565b61096483838360405180602001604052806000815250610f44565b6000818152600260205260408120546001600160a01b0316806107905760405162461bcd60e51b8152602060048201526018602482015277115490cdcc8c4e881a5b9d985b1a59081d1bdad95b88125160421b60448201526064016108c3565b60098054610d1490611d75565b80601f0160208091040260200160405190810160405280929190818152602001828054610d4090611d75565b8015610d8d5780601f10610d6257610100808354040283529160200191610d8d565b820191906000526020600020905b815481529060010190602001808311610d7057829003601f168201915b505050505081565b60006001600160a01b038216610dff5760405162461bcd60e51b815260206004820152602960248201527f4552433732313a2061646472657373207a65726f206973206e6f7420612076616044820152683634b21037bbb732b960b91b60648201526084016108c3565b506001600160a01b031660009081526003602052604090205490565b610e236110a4565b610e2d6000611431565b565b600e546000906001600160a01b03163314610e845760405162461bcd60e51b815260206004820152601560248201527443616c6c6572206973206e6f742067656e6573697360581b60448201526064016108c3565b60005b600e5461ffff600160a01b90910481169082161015610ebb57610ea9836113de565b80610eb381611e13565b915050610e87565b50600190505b919050565b610ece6110a4565b60068054911515600160c01b0260ff60c01b19909216919091179055565b610ef46110a4565b600b80546001600160a01b0319166001600160a01b0392909216919091179055565b610f1e6110a4565b600d610c7b8282611ea4565b6060600180546107a590611d75565b610c7b338383611483565b610f4e338361121b565b610f6a5760405162461bcd60e51b81526004016108c390611daf565b610f7684848484611551565b50505050565b6060610f878261114e565b6000610f91611584565b90506000815111610fb15760405180602001604052806000815250610fdc565b80610fbb84611593565b604051602001610fcc929190611f64565b6040516020818303038152906040525b9392505050565b610feb6110a4565b600755565b600d8054610d1490611d75565b6001600160a01b03918216600090815260056020908152604080832093909416825291909152205460ff1690565b6110336110a4565b6001600160a01b0381166110985760405162461bcd60e51b815260206004820152602660248201527f4f776e61626c653a206e6577206f776e657220697320746865207a65726f206160448201526564647265737360d01b60648201526084016108c3565b6110a181611431565b50565b6006546001600160a01b03163314610e2d5760405162461bcd60e51b815260206004820181905260248201527f4f776e61626c653a2063616c6c6572206973206e6f7420746865206f776e657260448201526064016108c3565b60006001600160e01b031982166380ac58cd60e01b148061112f57506001600160e01b03198216635b5e139f60e01b145b8061079057506301ffc9a760e01b6001600160e01b0319831614610790565b6000818152600260205260409020546001600160a01b03166110a15760405162461bcd60e51b8152602060048201526018602482015277115490cdcc8c4e881a5b9d985b1a59081d1bdad95b88125160421b60448201526064016108c3565b600081815260046020526040902080546001600160a01b0319166001600160a01b03841690811790915581906111e282610ca7565b6001600160a01b03167f8c5be1e5ebec7d5bd14f71427d1e84f3dd0314c0f7b2291e5b200ac8c7c3b92560405160405180910390a45050565b60008061122783610ca7565b9050806001600160a01b0316846001600160a01b0316148061124e575061124e8185610ffd565b806112725750836001600160a01b031661126784610828565b6001600160a01b0316145b949350505050565b826001600160a01b031661128d82610ca7565b6001600160a01b0316146112b35760405162461bcd60e51b81526004016108c390611f93565b6001600160a01b0382166113155760405162461bcd60e51b8152602060048201526024808201527f4552433732313a207472616e7366657220746f20746865207a65726f206164646044820152637265737360e01b60648201526084016108c3565b826001600160a01b031661132882610ca7565b6001600160a01b03161461134e5760405162461bcd60e51b81526004016108c390611f93565b600081815260046020908152604080832080546001600160a01b03199081169091556001600160a01b0387811680865260038552838620805460001901905590871680865283862080546001019055868652600290945282852080549092168417909155905184937fddf252ad1be2c89b69c2b068fc378daa952ba7f163c4a11628f55a4df523b3ef91a4505050565b600680546014906113f990600160a01b900461ffff16611e13565b91906101000a81548161ffff021916908361ffff1602179055506110a181600660149054906101000a900461ffff1661ffff16611626565b600680546001600160a01b038381166001600160a01b0319831681179093556040519116919082907f8be0079c531659141344cd1fd0a4f28419497f9722a3daafe3b4186f6b6457e090600090a35050565b816001600160a01b0316836001600160a01b0316036114e45760405162461bcd60e51b815260206004820152601960248201527f4552433732313a20617070726f766520746f2063616c6c65720000000000000060448201526064016108c3565b6001600160a01b03838116600081815260056020908152604080832094871680845294825291829020805460ff191686151590811790915591519182527f17307eab39ab6107e8899845ad3d59bd9653f200f220920489ca2b5937696c31910160405180910390a3505050565b61155c84848461127a565b61156884848484611640565b610f765760405162461bcd60e51b81526004016108c390611fd8565b6060600980546107a590611d75565b606060006115a083611741565b600101905060008167ffffffffffffffff8111156115c0576115c0611b49565b6040519080825280601f01601f1916602001820160405280156115ea576020820181803683370190505b5090508181016020015b600019016f181899199a1a9b1b9c1cb0b131b232b360811b600a86061a8153600a85049450846115f457509392505050565b610c7b828260405180602001604052806000815250611819565b60006001600160a01b0384163b1561173657604051630a85bd0160e11b81526001600160a01b0385169063150b7a029061168490339089908890889060040161202a565b6020604051808303816000875af19250505080156116bf575060408051601f3d908101601f191682019092526116bc91810190612067565b60015b61171c573d8080156116ed576040519150601f19603f3d011682016040523d82523d6000602084013e6116f2565b606091505b5080516000036117145760405162461bcd60e51b81526004016108c390611fd8565b805181602001fd5b6001600160e01b031916630a85bd0160e11b149050611272565b506001949350505050565b60008072184f03e93ff9f4daa797ed6e38ed64bf6a1f0160401b83106117805772184f03e93ff9f4daa797ed6e38ed64bf6a1f0160401b830492506040015b6d04ee2d6d415b85acef810000000083106117ac576d04ee2d6d415b85acef8100000000830492506020015b662386f26fc1000083106117ca57662386f26fc10000830492506010015b6305f5e10083106117e2576305f5e100830492506008015b61271083106117f657612710830492506004015b60648310611808576064830492506002015b600a83106107905760010192915050565b611823838361184c565b6118306000848484611640565b6109645760405162461bcd60e51b81526004016108c390611fd8565b6001600160a01b0382166118a25760405162461bcd60e51b815260206004820181905260248201527f4552433732313a206d696e7420746f20746865207a65726f206164647265737360448201526064016108c3565b6000818152600260205260409020546001600160a01b0316156119075760405162461bcd60e51b815260206004820152601c60248201527f4552433732313a20746f6b656e20616c7265616479206d696e7465640000000060448201526064016108c3565b6000818152600260205260409020546001600160a01b03161561196c5760405162461bcd60e51b815260206004820152601c60248201527f4552433732313a20746f6b656e20616c7265616479206d696e7465640000000060448201526064016108c3565b6001600160a01b038216600081815260036020908152604080832080546001019055848352600290915280822080546001600160a01b0319168417905551839291907fddf252ad1be2c89b69c2b068fc378daa952ba7f163c4a11628f55a4df523b3ef908290a45050565b6001600160e01b0319811681146110a157600080fd5b6000602082840312156119ff57600080fd5b8135610fdc816119d7565b60005b83811015611a25578181015183820152602001611a0d565b50506000910152565b60008151808452611a46816020860160208601611a0a565b601f01601f19169290920160200192915050565b602081526000610fdc6020830184611a2e565b600060208284031215611a7f57600080fd5b5035919050565b80356001600160a01b0381168114610ec157600080fd5b60008060408385031215611ab057600080fd5b611ab983611a86565b946020939093013593505050565b600080600060608486031215611adc57600080fd5b611ae584611a86565b9250611af360208501611a86565b9150604084013590509250925092565b600060208284031215611b1557600080fd5b813561ffff81168114610fdc57600080fd5b60008060408385031215611b3a57600080fd5b50508035926020909101359150565b634e487b7160e01b600052604160045260246000fd5b600067ffffffffffffffff80841115611b7a57611b7a611b49565b604051601f8501601f19908116603f01168101908282118183101715611ba257611ba2611b49565b81604052809350858152868686011115611bbb57600080fd5b858560208301376000602087830101525050509392505050565b600060208284031215611be757600080fd5b813567ffffffffffffffff811115611bfe57600080fd5b8201601f81018413611c0f57600080fd5b61127284823560208401611b5f565b600060208284031215611c3057600080fd5b610fdc82611a86565b80358015158114610ec157600080fd5b600060208284031215611c5b57600080fd5b610fdc82611c39565b60008060408385031215611c7757600080fd5b611c8083611a86565b9150611c8e60208401611c39565b90509250929050565b60008060008060808587031215611cad57600080fd5b611cb685611a86565b9350611cc460208601611a86565b925060408501359150606085013567ffffffffffffffff811115611ce757600080fd5b8501601f81018713611cf857600080fd5b611d0787823560208401611b5f565b91505092959194509250565b60008060408385031215611d2657600080fd5b611d2f83611a86565b9150611c8e60208401611a86565b634e487b7160e01b600052601160045260246000fd5b61ffff818116838216019080821115611d6e57611d6e611d3d565b5092915050565b600181811c90821680611d8957607f821691505b602082108103611da957634e487b7160e01b600052602260045260246000fd5b50919050565b6020808252602d908201527f4552433732313a2063616c6c6572206973206e6f7420746f6b656e206f776e6560408201526c1c881bdc88185c1c1c9bdd9959609a1b606082015260800190565b808202811582820484141761079057610790611d3d565b600061ffff808316818103611e2a57611e2a611d3d565b6001019392505050565b600082611e5157634e487b7160e01b600052601260045260246000fd5b500490565b601f82111561096457600081815260208120601f850160051c81016020861015611e7d5750805b601f850160051c820191505b81811015611e9c57828155600101611e89565b505050505050565b815167ffffffffffffffff811115611ebe57611ebe611b49565b611ed281611ecc8454611d75565b84611e56565b602080601f831160018114611f075760008415611eef5750858301515b600019600386901b1c1916600185901b178555611e9c565b600085815260208120601f198616915b82811015611f3657888601518255948401946001909101908401611f17565b5085821015611f545787850151600019600388901b60f8161c191681555b5050505050600190811b01905550565b60008351611f76818460208801611a0a565b835190830190611f8a818360208801611a0a565b01949350505050565b60208082526025908201527f4552433732313a207472616e736665722066726f6d20696e636f72726563742060408201526437bbb732b960d91b606082015260800190565b60208082526032908201527f4552433732313a207472616e7366657220746f206e6f6e20455243373231526560408201527131b2b4bb32b91034b6b83632b6b2b73a32b960711b606082015260800190565b6001600160a01b038581168252841660208201526040810183905260806060820181905260009061205d90830184611a2e565b9695505050505050565b60006020828403121561207957600080fd5b8151610fdc816119d756fea2646970667358221220cbf6290958ded70146276ade14b1d25c16d0282c60b3d0448bb76e199927823464736f6c63430008110033697066733a2f2f516d576951453635746d70597a636f6b436865516d6e673244434d33334445686a586350423650616e7770415a6f2f",
  "linkReferences": {},
  "deployedLinkReferences": {}
}