{
  "_format": "hh-sol-artifact-1",
  "contractName": "CryptoHomiesGenesis",
  "sourceName": "contracts/CryptoHomiesGenesis.sol",
  "abi": [
    {
      "inputs": [
        {
          "internalType": "string",
          "name": "_contractURI",
          "type": "string"
        },
        {
          "internalType": "string",
          "name": "_commonContractURI",
          "type": "string"
        },
        {
          "internalType": "address",
          "name": "_validSigner",
          "type": "address"
        }
      ],
      "stateMutability": "nonpayable",
      "type": "constructor"
    },
    {
      "inputs": [],
      "name": "InvalidShortString",
      "type": "error"
    },
    {
      "inputs": [
        {
          "internalType": "string",
          "name": "str",
          "type": "string"
        }
      ],
      "name": "StringTooLong",
      "type": "error"
    },
    {
      "anonymous": false,
      "inputs": [
        {
          "indexed": true,
          "internalType": "address",
          "name": "owner",
          "type": "address"
        },
        {
          "indexed": true,
          "internalType": "address",
          "name": "approved",
          "type": "address"
        },
        {
          "indexed": true,
          "internalType": "uint256",
          "name": "tokenId",
          "type": "uint256"
        }
      ],
      "name": "Approval",
      "type": "event"
    },
    {
      "anonymous": false,
      "inputs": [
        {
          "indexed": true,
          "internalType": "address",
          "name": "owner",
          "type": "address"
        },
        {
          "indexed": true,
          "internalType": "address",
          "name": "operator",
          "type": "address"
        },
        {
          "indexed": false,
          "internalType": "bool",
          "name": "approved",
          "type": "bool"
        }
      ],
      "name": "ApprovalForAll",
      "type": "event"
    },
    {
      "anonymous": false,
      "inputs": [],
      "name": "EIP712DomainChanged",
      "type": "event"
    },
    {
      "anonymous": false,
      "inputs": [
        {
          "indexed": true,
          "internalType": "address",
          "name": "previousOwner",
          "type": "address"
        },
        {
          "indexed": true,
          "internalType": "address",
          "name": "newOwner",
          "type": "address"
        }
      ],
      "name": "OwnershipTransferred",
      "type": "event"
    },
    {
      "anonymous": false,
      "inputs": [
        {
          "indexed": true,
          "internalType": "address",
          "name": "from",
          "type": "address"
        },
        {
          "indexed": true,
          "internalType": "address",
          "name": "to",
          "type": "address"
        },
        {
          "indexed": true,
          "internalType": "uint256",
          "name": "tokenId",
          "type": "uint256"
        }
      ],
      "name": "Transfer",
      "type": "event"
    },
    {
      "inputs": [],
      "name": "MAX_SUPPLY",
      "outputs": [
        {
          "internalType": "uint16",
          "name": "",
          "type": "uint16"
        }
      ],
      "stateMutability": "view",
      "type": "function"
    },
    {
      "inputs": [],
      "name": "allowlistOnly",
      "outputs": [
        {
          "internalType": "bool",
          "name": "",
          "type": "bool"
        }
      ],
      "stateMutability": "view",
      "type": "function"
    },
    {
      "inputs": [
        {
          "internalType": "address",
          "name": "to",
          "type": "address"
        },
        {
          "internalType": "uint256",
          "name": "tokenId",
          "type": "uint256"
        }
      ],
      "name": "approve",
      "outputs": [],
      "stateMutability": "nonpayable",
      "type": "function"
    },
    {
      "inputs": [
        {
          "internalType": "address",
          "name": "owner",
          "type": "address"
        }
      ],
      "name": "balanceOf",
      "outputs": [
        {
          "internalType": "uint256",
          "name": "",
          "type": "uint256"
        }
      ],
      "stateMutability": "view",
      "type": "function"
    },
    {
      "inputs": [],
      "name": "baseURI",
      "outputs": [
        {
          "internalType": "string",
          "name": "",
          "type": "string"
        }
      ],
      "stateMutability": "view",
      "type": "function"
    },
    {
      "inputs": [
        {
          "internalType": "string",
          "name": "baseURI_",
          "type": "string"
        }
      ],
      "name": "changeBaseURI",
      "outputs": [],
      "stateMutability": "nonpayable",
      "type": "function"
    },
    {
      "inputs": [],
      "name": "commonContract",
      "outputs": [
        {
          "internalType": "contract CryptoHomiesCommon",
          "name": "",
          "type": "address"
        }
      ],
      "stateMutability": "view",
      "type": "function"
    },
    {
      "inputs": [],
      "name": "contractURI",
      "outputs": [
        {
          "internalType": "string",
          "name": "",
          "type": "string"
        }
      ],
      "stateMutability": "view",
      "type": "function"
    },
    {
      "inputs": [],
      "name": "eip712Domain",
      "outputs": [
        {
          "internalType": "bytes1",
          "name": "fields",
          "type": "bytes1"
        },
        {
          "internalType": "string",
          "name": "name",
          "type": "string"
        },
        {
          "internalType": "string",
          "name": "version",
          "type": "string"
        },
        {
          "internalType": "uint256",
          "name": "chainId",
          "type": "uint256"
        },
        {
          "internalType": "address",
          "name": "verifyingContract",
          "type": "address"
        },
        {
          "internalType": "bytes32",
          "name": "salt",
          "type": "bytes32"
        },
        {
          "internalType": "uint256[]",
          "name": "extensions",
          "type": "uint256[]"
        }
      ],
      "stateMutability": "view",
      "type": "function"
    },
    {
      "inputs": [
        {
          "internalType": "uint256",
          "name": "tokenId",
          "type": "uint256"
        }
      ],
      "name": "getApproved",
      "outputs": [
        {
          "internalType": "address",
          "name": "",
          "type": "address"
        }
      ],
      "stateMutability": "view",
      "type": "function"
    },
    {
      "inputs": [
        {
          "internalType": "address",
          "name": "owner",
          "type": "address"
        },
        {
          "internalType": "address",
          "name": "operator",
          "type": "address"
        }
      ],
      "name": "isApprovedForAll",
      "outputs": [
        {
          "internalType": "bool",
          "name": "",
          "type": "bool"
        }
      ],
      "stateMutability": "view",
      "type": "function"
    },
    {
      "inputs": [],
      "name": "mint",
      "outputs": [],
      "stateMutability": "payable",
      "type": "function"
    },
    {
      "inputs": [],
      "name": "mintRate",
      "outputs": [
        {
          "internalType": "uint256",
          "name": "",
          "type": "uint256"
        }
      ],
      "stateMutability": "view",
      "type": "function"
    },
    {
      "inputs": [],
      "name": "name",
      "outputs": [
        {
          "internalType": "string",
          "name": "",
          "type": "string"
        }
      ],
      "stateMutability": "view",
      "type": "function"
    },
    {
      "inputs": [],
      "name": "owner",
      "outputs": [
        {
          "internalType": "address",
          "name": "",
          "type": "address"
        }
      ],
      "stateMutability": "view",
      "type": "function"
    },
    {
      "inputs": [
        {
          "internalType": "uint256",
          "name": "tokenId",
          "type": "uint256"
        }
      ],
      "name": "ownerOf",
      "outputs": [
        {
          "internalType": "address",
          "name": "",
          "type": "address"
        }
      ],
      "stateMutability": "view",
      "type": "function"
    },
    {
      "inputs": [
        {
          "components": [
            {
              "internalType": "uint16",
              "name": "id",
              "type": "uint16"
            },
            {
              "internalType": "address",
              "name": "recipient",
              "type": "address"
            },
            {
              "internalType": "bytes",
              "name": "signature",
              "type": "bytes"
            }
          ],
          "internalType": "struct CryptoHomiesGenesis.Voucher",
          "name": "_voucher",
          "type": "tuple"
        }
      ],
      "name": "redeem",
      "outputs": [],
      "stateMutability": "payable",
      "type": "function"
    },
    {
      "inputs": [],
      "name": "renounceOwnership",
      "outputs": [],
      "stateMutability": "nonpayable",
      "type": "function"
    },
    {
      "inputs": [],
      "name": "resetMintedUsers",
      "outputs": [],
      "stateMutability": "nonpayable",
      "type": "function"
    },
    {
      "inputs": [],
      "name": "royalty",
      "outputs": [
        {
          "internalType": "uint256",
          "name": "",
          "type": "uint256"
        }
      ],
      "stateMutability": "view",
      "type": "function"
    },
    {
      "inputs": [
        {
          "internalType": "uint256",
          "name": "",
          "type": "uint256"
        },
        {
          "internalType": "uint256",
          "name": "_salePrice",
          "type": "uint256"
        }
      ],
      "name": "royaltyInfo",
      "outputs": [
        {
          "internalType": "address",
          "name": "",
          "type": "address"
        },
        {
          "internalType": "uint256",
          "name": "",
          "type": "uint256"
        }
      ],
      "stateMutability": "view",
      "type": "function"
    },
    {
      "inputs": [],
      "name": "royaltyReceiver",
      "outputs": [
        {
          "internalType": "address",
          "name": "",
          "type": "address"
        }
      ],
      "stateMutability": "view",
      "type": "function"
    },
    {
      "inputs": [
        {
          "internalType": "address",
          "name": "from",
          "type": "address"
        },
        {
          "internalType": "address",
          "name": "to",
          "type": "address"
        },
        {
          "internalType": "uint256",
          "name": "tokenId",
          "type": "uint256"
        }
      ],
      "name": "safeTransferFrom",
      "outputs": [],
      "stateMutability": "nonpayable",
      "type": "function"
    },
    {
      "inputs": [
        {
          "internalType": "address",
          "name": "from",
          "type": "address"
        },
        {
          "internalType": "address",
          "name": "to",
          "type": "address"
        },
        {
          "internalType": "uint256",
          "name": "tokenId",
          "type": "uint256"
        },
        {
          "internalType": "bytes",
          "name": "data",
          "type": "bytes"
        }
      ],
      "name": "safeTransferFrom",
      "outputs": [],
      "stateMutability": "nonpayable",
      "type": "function"
    },
    {
      "inputs": [],
      "name": "saleActive",
      "outputs": [
        {
          "internalType": "bool",
          "name": "",
          "type": "bool"
        }
      ],
      "stateMutability": "view",
      "type": "function"
    },
    {
      "inputs": [
        {
          "internalType": "bool",
          "name": "_allowlistOnly",
          "type": "bool"
        }
      ],
      "name": "setAllowlistOnly",
      "outputs": [],
      "stateMutability": "nonpayable",
      "type": "function"
    },
    {
      "inputs": [
        {
          "internalType": "address",
          "name": "operator",
          "type": "address"
        },
        {
          "internalType": "bool",
          "name": "approved",
          "type": "bool"
        }
      ],
      "name": "setApprovalForAll",
      "outputs": [],
      "stateMutability": "nonpayable",
      "type": "function"
    },
    {
      "inputs": [
        {
          "internalType": "string",
          "name": "_contractURI",
          "type": "string"
        }
      ],
      "name": "setContractURI",
      "outputs": [],
      "stateMutability": "nonpayable",
      "type": "function"
    },
    {
      "inputs": [
        {
          "internalType": "uint256",
          "name": "_mintRate",
          "type": "uint256"
        }
      ],
      "name": "setMintRate",
      "outputs": [],
      "stateMutability": "nonpayable",
      "type": "function"
    },
    {
      "inputs": [
        {
          "internalType": "uint256",
          "name": "_royalty",
          "type": "uint256"
        }
      ],
      "name": "setRoyalty",
      "outputs": [],
      "stateMutability": "nonpayable",
      "type": "function"
    },
    {
      "inputs": [
        {
          "internalType": "address",
          "name": "royaltyReceiver_",
          "type": "address"
        }
      ],
      "name": "setRoyaltyReceiver",
      "outputs": [],
      "stateMutability": "nonpayable",
      "type": "function"
    },
    {
      "inputs": [
        {
          "internalType": "bool",
          "name": "_saleActive",
          "type": "bool"
        }
      ],
      "name": "setSaleActive",
      "outputs": [],
      "stateMutability": "nonpayable",
      "type": "function"
    },
    {
      "inputs": [
        {
          "internalType": "address",
          "name": "_validSigner",
          "type": "address"
        }
      ],
      "name": "setValidSigner",
      "outputs": [],
      "stateMutability": "nonpayable",
      "type": "function"
    },
    {
      "inputs": [
        {
          "internalType": "bytes4",
          "name": "interfaceId",
          "type": "bytes4"
        }
      ],
      "name": "supportsInterface",
      "outputs": [
        {
          "internalType": "bool",
          "name": "",
          "type": "bool"
        }
      ],
      "stateMutability": "view",
      "type": "function"
    },
    {
      "inputs": [],
      "name": "symbol",
      "outputs": [
        {
          "internalType": "string",
          "name": "",
          "type": "string"
        }
      ],
      "stateMutability": "view",
      "type": "function"
    },
    {
      "inputs": [],
      "name": "teamMinted",
      "outputs": [
        {
          "internalType": "bool",
          "name": "",
          "type": "bool"
        }
      ],
      "stateMutability": "view",
      "type": "function"
    },
    {
      "inputs": [
        {
          "internalType": "uint256",
          "name": "tokenId",
          "type": "uint256"
        }
      ],
      "name": "tokenURI",
      "outputs": [
        {
          "internalType": "string",
          "name": "",
          "type": "string"
        }
      ],
      "stateMutability": "view",
      "type": "function"
    },
    {
      "inputs": [],
      "name": "totalSupply",
      "outputs": [
        {
          "internalType": "uint16",
          "name": "",
          "type": "uint16"
        }
      ],
      "stateMutability": "view",
      "type": "function"
    },
    {
      "inputs": [
        {
          "internalType": "address",
          "name": "from",
          "type": "address"
        },
        {
          "internalType": "address",
          "name": "to",
          "type": "address"
        },
        {
          "internalType": "uint256",
          "name": "tokenId",
          "type": "uint256"
        }
      ],
      "name": "transferFrom",
      "outputs": [],
      "stateMutability": "nonpayable",
      "type": "function"
    },
    {
      "inputs": [
        {
          "internalType": "address",
          "name": "newOwner",
          "type": "address"
        }
      ],
      "name": "transferOwnership",
      "outputs": [],
      "stateMutability": "nonpayable",
      "type": "function"
    },
    {
      "inputs": [],
      "name": "withdraw",
      "outputs": [],
      "stateMutability": "nonpayable",
      "type": "function"
    }
  ],
  "bytecode": "0x6006805462ffffff60b01b191690556101c0604052603661016081815290620057be6101803960099062000034908262000488565b506010805461ff00191690553480156200004d57600080fd5b50604051620057f4380380620057f483398101604081905262000070916200060b565b60408051808201825260138082527f43727970746f486f6d69657347656e657369730000000000000000000000000060208084018290528451808601865260018152603160f81b8183015285518087018752938452838201929092528451808601909552600385526243484760e81b9085015291926112f067016345785d8a0000888484600062000102838262000488565b50600162000111828262000488565b5050506200012e62000128620002e060201b60201c565b620002e4565b6008805461ffff191661ffff85161790556007829055620001576006546001600160a01b031690565b600b80546001600160a01b0319166001600160a01b039290921691909117905560fa600c55600d6200018a828262000488565b505050505050620001ab600e836200033660201b620011401790919060201c565b61012052620001c881600f62000336602090811b6200114017901c565b61014052815160208084019190912060e052815190820120610100524660a0526200025660e05161010051604080517f8b73c3c69bb8fe3d512ecc4cf759cc79239f7b179b0ffacaa9a75d522b39400f60208201529081019290925260608201524660808201523060a082015260009060c00160405160208183030381529060405280519060200120905090565b60805250503060c052604051339083906200027190620003d5565b6200027e929190620006c6565b604051809103906000f0801580156200029b573d6000803e3d6000fd5b50601280546001600160a01b0319166001600160a01b039283161790556010805462010000600160b01b03191662010000939092169290920217905550620007359050565b3390565b600680546001600160a01b038381166001600160a01b0319831681179093556040519116919082907f8be0079c531659141344cd1fd0a4f28419497f9722a3daafe3b4186f6b6457e090600090a35050565b600060208351101562000356576200034e8362000386565b905062000380565b826200036d83620003d260201b620011711760201c565b906200037a908262000488565b5060ff90505b92915050565b600080829050601f81511115620003bd578260405163305a27a960e01b8152600401620003b49190620006f4565b60405180910390fd5b8051620003ca8262000710565b179392505050565b90565b612553806200326b83390190565b634e487b7160e01b600052604160045260246000fd5b600181811c908216806200040e57607f821691505b6020821081036200042f57634e487b7160e01b600052602260045260246000fd5b50919050565b601f8211156200048357600081815260208120601f850160051c810160208610156200045e5750805b601f850160051c820191505b818110156200047f578281556001016200046a565b5050505b505050565b81516001600160401b03811115620004a457620004a4620003e3565b620004bc81620004b58454620003f9565b8462000435565b602080601f831160018114620004f45760008415620004db5750858301515b600019600386901b1c1916600185901b1785556200047f565b600085815260208120601f198616915b82811015620005255788860151825594840194600190910190840162000504565b5085821015620005445787850151600019600388901b60f8161c191681555b5050505050600190811b01905550565b60005b838110156200057157818101518382015260200162000557565b50506000910152565b600082601f8301126200058c57600080fd5b81516001600160401b0380821115620005a957620005a9620003e3565b604051601f8301601f19908116603f01168101908282118183101715620005d457620005d4620003e3565b81604052838152866020858801011115620005ee57600080fd5b6200060184602083016020890162000554565b9695505050505050565b6000806000606084860312156200062157600080fd5b83516001600160401b03808211156200063957600080fd5b62000647878388016200057a565b945060208601519150808211156200065e57600080fd5b506200066d868287016200057a565b604086015190935090506001600160a01b03811681146200068d57600080fd5b809150509250925092565b60008151808452620006b281602086016020860162000554565b601f01601f19169290920160200192915050565b6001600160a01b0383168152604060208201819052600090620006ec9083018462000698565b949350505050565b60208152600062000709602083018462000698565b9392505050565b805160208083015191908110156200042f5760001960209190910360031b1b16919050565b60805160a05160c05160e051610100516101205161014051612adb620007906000396000610f3801526000610f0d0152600061217e01526000612156015260006120b1015260006120db015260006121050152612adb6000f3fe6080604052600436106102455760003560e01c806368428a1b1161013957806395d89b41116100b6578063ca0dcf161161007a578063ca0dcf16146106b2578063dbe2193f146106c8578063e8a3d485146106e8578063e8b5498d146106fd578063e985e9c514610717578063f2fde38b1461073757600080fd5b806395d89b411461061d5780639fbc871314610632578063a22cb46514610652578063b88d4fde14610672578063c87b56dd1461069257600080fd5b8063841718a6116100fd578063841718a61461057757806384b0196e146105975780638da5cb5b146105bf5780638dc251e3146105dd578063938e3d7b146105fd57600080fd5b806368428a1b146104f95780636c0360eb1461051a57806370a082311461052f578063715018a61461054f57806379c76a6d1461056457600080fd5b806329ee566c116101c75780633ccfd60b1161018b5780633ccfd60b146104655780633d141aa31461047a5780634209a2e11461049957806342842e0e146104b95780636352211e146104d957600080fd5b806329ee566c146103a75780632a55205a146103cb578063304d394c1461040a57806332cb6b0c1461042a57806339a0c6f91461044557600080fd5b80631249c58b1161020e5780631249c58b1461031057806312d8b6591461031857806318160ddd1461033857806318ac827e1461036757806323b872dd1461038757600080fd5b80627171531461024a57806301ffc9a71461026157806306fdde0314610296578063081812fc146102b8578063095ea7b3146102f0575b600080fd5b34801561025657600080fd5b5061025f610757565b005b34801561026d57600080fd5b5061028161027c3660046122ae565b61079b565b60405190151581526020015b60405180910390f35b3480156102a257600080fd5b506102ab6107c6565b60405161028d919061231b565b3480156102c457600080fd5b506102d86102d336600461232e565b610858565b6040516001600160a01b03909116815260200161028d565b3480156102fc57600080fd5b5061025f61030b366004612363565b61087f565b61025f610999565b34801561032457600080fd5b5061025f61033336600461238d565b6109fb565b34801561034457600080fd5b50600654600160a01b900461ffff165b60405161ffff909116815260200161028d565b34801561037357600080fd5b5061025f6103823660046123b6565b610a2d565b34801561039357600080fd5b5061025f6103a23660046123d3565b610a4f565b3480156103b357600080fd5b506103bd600c5481565b60405190815260200161028d565b3480156103d757600080fd5b506103eb6103e636600461240f565b610a80565b604080516001600160a01b03909316835260208301919091520161028d565b34801561041657600080fd5b506012546102d8906001600160a01b031681565b34801561043657600080fd5b506008546103549061ffff1681565b34801561045157600080fd5b5061025f6104603660046124bd565b610ab9565b34801561047157600080fd5b5061025f610ad1565b34801561048657600080fd5b5060105461028190610100900460ff1681565b3480156104a557600080fd5b5061025f6104b436600461232e565b610b24565b3480156104c557600080fd5b5061025f6104d43660046123d3565b610b31565b3480156104e557600080fd5b506102d86104f436600461232e565b610b4c565b34801561050557600080fd5b5060065461028190600160c01b900460ff1681565b34801561052657600080fd5b506102ab610bac565b34801561053b57600080fd5b506103bd61054a36600461238d565b610c3a565b34801561055b57600080fd5b5061025f610cc0565b61025f610572366004612506565b610cd2565b34801561058357600080fd5b5061025f6105923660046123b6565b610ed9565b3480156105a357600080fd5b506105ac610eff565b60405161028d9796959493929190612541565b3480156105cb57600080fd5b506006546001600160a01b03166102d8565b3480156105e957600080fd5b5061025f6105f836600461238d565b610f88565b34801561060957600080fd5b5061025f6106183660046124bd565b610fb2565b34801561062957600080fd5b506102ab610fc6565b34801561063e57600080fd5b50600b546102d8906001600160a01b031681565b34801561065e57600080fd5b5061025f61066d3660046125d7565b610fd5565b34801561067e57600080fd5b5061025f61068d36600461260e565b610fe0565b34801561069e57600080fd5b506102ab6106ad36600461232e565b611018565b3480156106be57600080fd5b506103bd60075481565b3480156106d457600080fd5b5061025f6106e336600461232e565b61107f565b3480156106f457600080fd5b506102ab61108c565b34801561070957600080fd5b506010546102819060ff1681565b34801561072357600080fd5b5061028161073236600461268a565b611099565b34801561074357600080fd5b5061025f61075236600461238d565b6110c7565b61075f611174565b6001600660168282829054906101000a900461ffff1661077f91906126d3565b92506101000a81548161ffff021916908361ffff160217905550565b60006001600160e01b0319821663152a902d60e11b14806107c057506107c0826111ce565b92915050565b6060600080546107d5906126f5565b80601f0160208091040260200160405190810160405280929190818152602001828054610801906126f5565b801561084e5780601f106108235761010080835404028352916020019161084e565b820191906000526020600020905b81548152906001019060200180831161083157829003601f168201915b5050505050905090565b60006108638261121e565b506000908152600460205260409020546001600160a01b031690565b600061088a82610b4c565b9050806001600160a01b0316836001600160a01b0316036108fc5760405162461bcd60e51b815260206004820152602160248201527f4552433732313a20617070726f76616c20746f2063757272656e74206f776e656044820152603960f91b60648201526084015b60405180910390fd5b336001600160a01b038216148061091857506109188133611099565b61098a5760405162461bcd60e51b815260206004820152603d60248201527f4552433732313a20617070726f76652063616c6c6572206973206e6f7420746f60448201527f6b656e206f776e6572206f7220617070726f76656420666f7220616c6c00000060648201526084016108f3565b610994838361127d565b505050565b601054610100900460ff16156109f15760405162461bcd60e51b815260206004820181905260248201527f43616e206f6e6c79206d696e74207468726f75676820616c6c6f77206c69737460448201526064016108f3565b6109f96112eb565b565b610a03611174565b601080546001600160a01b03909216620100000262010000600160b01b0319909216919091179055565b610a35611174565b601080549115156101000261ff0019909216919091179055565b610a59338261152e565b610a755760405162461bcd60e51b81526004016108f39061272f565b61099483838361158d565b6000806000612710600c5485610a96919061277c565b610aa09190612793565b600b546001600160a01b031693509150505b9250929050565b610ac1611174565b6009610acd8282612803565b5050565b610ad9611174565b47610aec6006546001600160a01b031690565b6001600160a01b03166108fc829081150290604051600060405180830381858888f19350505050158015610acd573d6000803e3d6000fd5b610b2c611174565b600c55565b61099483838360405180602001604052806000815250610fe0565b6000818152600260205260408120546001600160a01b0316806107c05760405162461bcd60e51b8152602060048201526018602482015277115490cdcc8c4e881a5b9d985b1a59081d1bdad95b88125160421b60448201526064016108f3565b60098054610bb9906126f5565b80601f0160208091040260200160405190810160405280929190818152602001828054610be5906126f5565b8015610c325780601f10610c0757610100808354040283529160200191610c32565b820191906000526020600020905b815481529060010190602001808311610c1557829003601f168201915b505050505081565b60006001600160a01b038216610ca45760405162461bcd60e51b815260206004820152602960248201527f4552433732313a2061646472657373207a65726f206973206e6f7420612076616044820152683634b21037bbb732b960b91b60648201526084016108f3565b506001600160a01b031660009081526003602052604090205490565b610cc8611174565b6109f960006116f1565b336000610cde83611743565b90506001600160a01b038116610d465760405162461bcd60e51b815260206004820152602760248201527f556e61626c6520746f207265636f766572207369676e65722066726f6d207369604482015266676e617475726560c81b60648201526084016108f3565b6010546001600160a01b03828116620100009092041614610d9b5760405162461bcd60e51b815260206004820152600f60248201526e24b73b30b634b2102b37bab1b432b960891b60448201526064016108f3565b610dab604084016020850161238d565b6001600160a01b0316826001600160a01b031614610e165760405162461bcd60e51b815260206004820152602260248201527f5468697320566f756368657220646f65736e27742062656c6f6e6720746f20796044820152616f7560f01b60648201526084016108f3565b60116000610e2760208601866128c3565b61ffff16815260208101919091526040016000205460ff1615610e965760405162461bcd60e51b815260206004820152602160248201527f5468697320566f75636865722077617320616c72656164792072656465656d656044820152601960fa1b60648201526084016108f3565b610e9e6112eb565b600160116000610eb160208701876128c3565b61ffff1681526020810191909152604001600020805460ff1916911515919091179055505050565b610ee1611174565b60068054911515600160c01b0260ff60c01b19909216919091179055565b600060608082808083610f337f0000000000000000000000000000000000000000000000000000000000000000600e61179c565b610f5e7f0000000000000000000000000000000000000000000000000000000000000000600f61179c565b60408051600080825260208201909252600f60f81b9b939a50919850469750309650945092509050565b610f90611174565b600b80546001600160a01b0319166001600160a01b0392909216919091179055565b610fba611174565b600d610acd8282612803565b6060600180546107d5906126f5565b610acd338383611840565b610fea338361152e565b6110065760405162461bcd60e51b81526004016108f39061272f565b6110128484848461190e565b50505050565b60606110238261121e565b600061102d611941565b9050600081511161104d5760405180602001604052806000815250611078565b8061105784611950565b6040516020016110689291906128e7565b6040516020818303038152906040525b9392505050565b611087611174565b600755565b600d8054610bb9906126f5565b6001600160a01b03918216600090815260056020908152604080832093909416825291909152205460ff1690565b6110cf611174565b6001600160a01b0381166111345760405162461bcd60e51b815260206004820152602660248201527f4f776e61626c653a206e6577206f776e657220697320746865207a65726f206160448201526564647265737360d01b60648201526084016108f3565b61113d816116f1565b50565b600060208351101561115c57611155836119e3565b90506107c0565b816111678482612803565b5060ff90506107c0565b90565b6006546001600160a01b031633146109f95760405162461bcd60e51b815260206004820181905260248201527f4f776e61626c653a2063616c6c6572206973206e6f7420746865206f776e657260448201526064016108f3565b60006001600160e01b031982166380ac58cd60e01b14806111ff57506001600160e01b03198216635b5e139f60e01b145b806107c057506301ffc9a760e01b6001600160e01b03198316146107c0565b6000818152600260205260409020546001600160a01b031661113d5760405162461bcd60e51b8152602060048201526018602482015277115490cdcc8c4e881a5b9d985b1a59081d1bdad95b88125160421b60448201526064016108f3565b600081815260046020526040902080546001600160a01b0319166001600160a01b03841690811790915581906112b282610b4c565b6001600160a01b03167f8c5be1e5ebec7d5bd14f71427d1e84f3dd0314c0f7b2291e5b200ac8c7c3b92560405160405180910390a45050565b60065460009061130790600160a01b900461ffff1660016126d3565b600654909150600160c01b900460ff166113555760405162461bcd60e51b815260206004820152600f60248201526e53616c65206e6f742061637469766560881b60448201526064016108f3565b60085461ffff90811690821611156113a45760405162461bcd60e51b8152602060048201526012602482015271139bc81b5bdc99481a5d195b5cc81b19599d60721b60448201526064016108f3565b6007543410156113ee5760405162461bcd60e51b8152602060048201526015602482015274139bdd08195b9bdd59da08195d1a195c881cd95b9d605a1b60448201526064016108f3565b600654600160b01b900461ffff166000908152600a6020908152604080832033845290915290205460ff16156114665760405162461bcd60e51b815260206004820152601760248201527f5573657220686173206d696e74656420616c726561647900000000000000000060448201526064016108f3565b611474338261ffff16611a21565b601254604051637de224b760e01b81523360048201526001600160a01b0390911690637de224b7906024016020604051808303816000875af11580156114be573d6000803e3d6000fd5b505050506040513d601f19601f820116820180604052508101906114e29190612916565b506006805461ffff60a01b1916600160a01b61ffff938416021790819055600160b01b9004166000908152600a602090815260408083203384529091529020805460ff19166001179055565b60008061153a83610b4c565b9050806001600160a01b0316846001600160a01b0316148061156157506115618185611099565b806115855750836001600160a01b031661157a84610858565b6001600160a01b0316145b949350505050565b826001600160a01b03166115a082610b4c565b6001600160a01b0316146115c65760405162461bcd60e51b81526004016108f390612933565b6001600160a01b0382166116285760405162461bcd60e51b8152602060048201526024808201527f4552433732313a207472616e7366657220746f20746865207a65726f206164646044820152637265737360e01b60648201526084016108f3565b826001600160a01b031661163b82610b4c565b6001600160a01b0316146116615760405162461bcd60e51b81526004016108f390612933565b600081815260046020908152604080832080546001600160a01b03199081169091556001600160a01b0387811680865260038552838620805460001901905590871680865283862080546001019055868652600290945282852080549092168417909155905184937fddf252ad1be2c89b69c2b068fc378daa952ba7f163c4a11628f55a4df523b3ef91a4505050565b600680546001600160a01b038381166001600160a01b0319831681179093556040519116919082907f8be0079c531659141344cd1fd0a4f28419497f9722a3daafe3b4186f6b6457e090600090a35050565b60008061174f83611a3b565b9050611078816117626040860186612978565b8080601f016020809104026020016040519081016040528093929190818152602001838380828437600092019190915250611ac992505050565b606060ff83146117af5761115583611aed565b8180546117bb906126f5565b80601f01602080910402602001604051908101604052809291908181526020018280546117e7906126f5565b80156118345780601f1061180957610100808354040283529160200191611834565b820191906000526020600020905b81548152906001019060200180831161181757829003601f168201915b505050505090506107c0565b816001600160a01b0316836001600160a01b0316036118a15760405162461bcd60e51b815260206004820152601960248201527f4552433732313a20617070726f766520746f2063616c6c65720000000000000060448201526064016108f3565b6001600160a01b03838116600081815260056020908152604080832094871680845294825291829020805460ff191686151590811790915591519182527f17307eab39ab6107e8899845ad3d59bd9653f200f220920489ca2b5937696c31910160405180910390a3505050565b61191984848461158d565b61192584848484611b2c565b6110125760405162461bcd60e51b81526004016108f3906129bf565b6060600980546107d5906126f5565b6060600061195d83611c2d565b600101905060008167ffffffffffffffff81111561197d5761197d612431565b6040519080825280601f01601f1916602001820160405280156119a7576020820181803683370190505b5090508181016020015b600019016f181899199a1a9b1b9c1cb0b131b232b360811b600a86061a8153600a85049450846119b157509392505050565b600080829050601f81511115611a0e578260405163305a27a960e01b81526004016108f3919061231b565b8051611a1982612a11565b179392505050565b610acd828260405180602001604052806000815250611d05565b60006107c07fc0f519383f06a0be7330a9ec31603704feb24028a762f42c24f43db71f467a93611a6e60208501856128c3565b611a7e604086016020870161238d565b604051602001611aae9392919092835261ffff9190911660208301526001600160a01b0316604082015260600190565b60405160208183030381529060405280519060200120611d38565b6000806000611ad88585611d65565b91509150611ae581611da7565b509392505050565b60606000611afa83611ef1565b604080516020808252818301909252919250600091906020820181803683375050509182525060208101929092525090565b60006001600160a01b0384163b15611c2257604051630a85bd0160e11b81526001600160a01b0385169063150b7a0290611b70903390899088908890600401612a35565b6020604051808303816000875af1925050508015611bab575060408051601f3d908101601f19168201909252611ba891810190612a72565b60015b611c08573d808015611bd9576040519150601f19603f3d011682016040523d82523d6000602084013e611bde565b606091505b508051600003611c005760405162461bcd60e51b81526004016108f3906129bf565b805181602001fd5b6001600160e01b031916630a85bd0160e11b149050611585565b506001949350505050565b60008072184f03e93ff9f4daa797ed6e38ed64bf6a1f0160401b8310611c6c5772184f03e93ff9f4daa797ed6e38ed64bf6a1f0160401b830492506040015b6d04ee2d6d415b85acef81000000008310611c98576d04ee2d6d415b85acef8100000000830492506020015b662386f26fc100008310611cb657662386f26fc10000830492506010015b6305f5e1008310611cce576305f5e100830492506008015b6127108310611ce257612710830492506004015b60648310611cf4576064830492506002015b600a83106107c05760010192915050565b611d0f8383611f19565b611d1c6000848484611b2c565b6109945760405162461bcd60e51b81526004016108f3906129bf565b60006107c0611d456120a4565b8360405161190160f01b8152600281019290925260228201526042902090565b6000808251604103611d9b5760208301516040840151606085015160001a611d8f878285856121d4565b94509450505050610ab2565b50600090506002610ab2565b6000816004811115611dbb57611dbb612a8f565b03611dc35750565b6001816004811115611dd757611dd7612a8f565b03611e245760405162461bcd60e51b815260206004820152601860248201527f45434453413a20696e76616c6964207369676e6174757265000000000000000060448201526064016108f3565b6002816004811115611e3857611e38612a8f565b03611e855760405162461bcd60e51b815260206004820152601f60248201527f45434453413a20696e76616c6964207369676e6174757265206c656e6774680060448201526064016108f3565b6003816004811115611e9957611e99612a8f565b0361113d5760405162461bcd60e51b815260206004820152602260248201527f45434453413a20696e76616c6964207369676e6174757265202773272076616c604482015261756560f01b60648201526084016108f3565b600060ff8216601f8111156107c057604051632cd44ac360e21b815260040160405180910390fd5b6001600160a01b038216611f6f5760405162461bcd60e51b815260206004820181905260248201527f4552433732313a206d696e7420746f20746865207a65726f206164647265737360448201526064016108f3565b6000818152600260205260409020546001600160a01b031615611fd45760405162461bcd60e51b815260206004820152601c60248201527f4552433732313a20746f6b656e20616c7265616479206d696e7465640000000060448201526064016108f3565b6000818152600260205260409020546001600160a01b0316156120395760405162461bcd60e51b815260206004820152601c60248201527f4552433732313a20746f6b656e20616c7265616479206d696e7465640000000060448201526064016108f3565b6001600160a01b038216600081815260036020908152604080832080546001019055848352600290915280822080546001600160a01b0319168417905551839291907fddf252ad1be2c89b69c2b068fc378daa952ba7f163c4a11628f55a4df523b3ef908290a45050565b6000306001600160a01b037f0000000000000000000000000000000000000000000000000000000000000000161480156120fd57507f000000000000000000000000000000000000000000000000000000000000000046145b1561212757507f000000000000000000000000000000000000000000000000000000000000000090565b6121cf604080517f8b73c3c69bb8fe3d512ecc4cf759cc79239f7b179b0ffacaa9a75d522b39400f60208201527f0000000000000000000000000000000000000000000000000000000000000000918101919091527f000000000000000000000000000000000000000000000000000000000000000060608201524660808201523060a082015260009060c00160405160208183030381529060405280519060200120905090565b905090565b6000807f7fffffffffffffffffffffffffffffff5d576e7357a4501ddfe92f46681b20a083111561220b575060009050600361228f565b6040805160008082526020820180845289905260ff881692820192909252606081018690526080810185905260019060a0016020604051602081039080840390855afa15801561225f573d6000803e3d6000fd5b5050604051601f1901519150506001600160a01b0381166122885760006001925092505061228f565b9150600090505b94509492505050565b6001600160e01b03198116811461113d57600080fd5b6000602082840312156122c057600080fd5b813561107881612298565b60005b838110156122e65781810151838201526020016122ce565b50506000910152565b600081518084526123078160208601602086016122cb565b601f01601f19169290920160200192915050565b60208152600061107860208301846122ef565b60006020828403121561234057600080fd5b5035919050565b80356001600160a01b038116811461235e57600080fd5b919050565b6000806040838503121561237657600080fd5b61237f83612347565b946020939093013593505050565b60006020828403121561239f57600080fd5b61107882612347565b801515811461113d57600080fd5b6000602082840312156123c857600080fd5b8135611078816123a8565b6000806000606084860312156123e857600080fd5b6123f184612347565b92506123ff60208501612347565b9150604084013590509250925092565b6000806040838503121561242257600080fd5b50508035926020909101359150565b634e487b7160e01b600052604160045260246000fd5b600067ffffffffffffffff8084111561246257612462612431565b604051601f8501601f19908116603f0116810190828211818310171561248a5761248a612431565b816040528093508581528686860111156124a357600080fd5b858560208301376000602087830101525050509392505050565b6000602082840312156124cf57600080fd5b813567ffffffffffffffff8111156124e657600080fd5b8201601f810184136124f757600080fd5b61158584823560208401612447565b60006020828403121561251857600080fd5b813567ffffffffffffffff81111561252f57600080fd5b82016060818503121561107857600080fd5b60ff60f81b881681526000602060e08184015261256160e084018a6122ef565b8381036040850152612573818a6122ef565b606085018990526001600160a01b038816608086015260a0850187905284810360c0860152855180825283870192509083019060005b818110156125c5578351835292840192918401916001016125a9565b50909c9b505050505050505050505050565b600080604083850312156125ea57600080fd5b6125f383612347565b91506020830135612603816123a8565b809150509250929050565b6000806000806080858703121561262457600080fd5b61262d85612347565b935061263b60208601612347565b925060408501359150606085013567ffffffffffffffff81111561265e57600080fd5b8501601f8101871361266f57600080fd5b61267e87823560208401612447565b91505092959194509250565b6000806040838503121561269d57600080fd5b6126a683612347565b91506126b460208401612347565b90509250929050565b634e487b7160e01b600052601160045260246000fd5b61ffff8181168382160190808211156126ee576126ee6126bd565b5092915050565b600181811c9082168061270957607f821691505b60208210810361272957634e487b7160e01b600052602260045260246000fd5b50919050565b6020808252602d908201527f4552433732313a2063616c6c6572206973206e6f7420746f6b656e206f776e6560408201526c1c881bdc88185c1c1c9bdd9959609a1b606082015260800190565b80820281158282048414176107c0576107c06126bd565b6000826127b057634e487b7160e01b600052601260045260246000fd5b500490565b601f82111561099457600081815260208120601f850160051c810160208610156127dc5750805b601f850160051c820191505b818110156127fb578281556001016127e8565b505050505050565b815167ffffffffffffffff81111561281d5761281d612431565b6128318161282b84546126f5565b846127b5565b602080601f831160018114612866576000841561284e5750858301515b600019600386901b1c1916600185901b1785556127fb565b600085815260208120601f198616915b8281101561289557888601518255948401946001909101908401612876565b50858210156128b35787850151600019600388901b60f8161c191681555b5050505050600190811b01905550565b6000602082840312156128d557600080fd5b813561ffff8116811461107857600080fd5b600083516128f98184602088016122cb565b83519083019061290d8183602088016122cb565b01949350505050565b60006020828403121561292857600080fd5b8151611078816123a8565b60208082526025908201527f4552433732313a207472616e736665722066726f6d20696e636f72726563742060408201526437bbb732b960d91b606082015260800190565b6000808335601e1984360301811261298f57600080fd5b83018035915067ffffffffffffffff8211156129aa57600080fd5b602001915036819003821315610ab257600080fd5b60208082526032908201527f4552433732313a207472616e7366657220746f206e6f6e20455243373231526560408201527131b2b4bb32b91034b6b83632b6b2b73a32b960711b606082015260800190565b805160208083015191908110156127295760001960209190910360031b1b16919050565b6001600160a01b0385811682528416602082015260408101839052608060608201819052600090612a68908301846122ef565b9695505050505050565b600060208284031215612a8457600080fd5b815161107881612298565b634e487b7160e01b600052602160045260246000fdfea26469706673582212200b303ec533d29dc27c9f8348f517cfbb3fbf9b2660a0395d11a1b002a0151c4b64736f6c634300081100336006805462ffffff60b01b1916905560e060405260366080818152906200251d60a03960099062000031908262000291565b50600e805463ffffffff60a01b19166203000360a01b1790553480156200005757600080fd5b5060405162002553380380620025538339810160408190526200007a916200035d565b6040518060400160405280601281526020017121b93cb83a37a437b6b4b2b9a1b7b6b6b7b760711b8152506040518060400160405280600381526020016243484360e81b81525061504067016345785d8a00008484848160009081620000e1919062000291565b506001620000f0828262000291565b5050506200010d620001076200019660201b60201c565b6200019a565b6008805461ffff191661ffff85161790556007829055620001366006546001600160a01b031690565b600b80546001600160a01b0319166001600160a01b039290921691909117905560fa600c55600d62000169828262000291565b5050600e80546001600160a01b03191633179055506200018e9250849150506200019a565b505062000453565b3390565b600680546001600160a01b038381166001600160a01b0319831681179093556040519116919082907f8be0079c531659141344cd1fd0a4f28419497f9722a3daafe3b4186f6b6457e090600090a35050565b634e487b7160e01b600052604160045260246000fd5b600181811c908216806200021757607f821691505b6020821081036200023857634e487b7160e01b600052602260045260246000fd5b50919050565b601f8211156200028c57600081815260208120601f850160051c81016020861015620002675750805b601f850160051c820191505b81811015620002885782815560010162000273565b5050505b505050565b81516001600160401b03811115620002ad57620002ad620001ec565b620002c581620002be845462000202565b846200023e565b602080601f831160018114620002fd5760008415620002e45750858301515b600019600386901b1c1916600185901b17855562000288565b600085815260208120601f198616915b828110156200032e578886015182559484019460019091019084016200030d565b50858210156200034d5787850151600019600388901b60f8161c191681555b5050505050600190811b01905550565b600080604083850312156200037157600080fd5b82516001600160a01b03811681146200038957600080fd5b602084810151919350906001600160401b0380821115620003a957600080fd5b818601915086601f830112620003be57600080fd5b815181811115620003d357620003d3620001ec565b604051601f8201601f19908116603f01168101908382118183101715620003fe57620003fe620001ec565b8160405282815289868487010111156200041757600080fd5b600093505b828410156200043b57848401860151818501870152928501926200041c565b60008684830101528096505050505050509250929050565b6120ba80620004636000396000f3fe60806040526004361061022f5760003560e01c806370a082311161012e578063a22cb465116100ab578063d8e99f921161006f578063d8e99f9214610692578063dbe2193f146106b2578063e8a3d485146106d2578063e985e9c5146106e7578063f2fde38b1461070757600080fd5b8063a22cb465146105fa578063b15c4dd01461061a578063b88d4fde1461063c578063c87b56dd1461065c578063ca0dcf161461067c57600080fd5b80638da5cb5b116100f25780638da5cb5b146105675780638dc251e314610585578063938e3d7b146105a557806395d89b41146105c55780639fbc8713146105da57600080fd5b806370a08231146104d0578063715018a6146104f0578063735577fc146105055780637de224b714610527578063841718a61461054757600080fd5b80632a55205a116101bc5780634209a2e1116101805780634209a2e11461043a57806342842e0e1461045a5780636352211e1461047a57806368428a1b1461049a5780636c0360eb146104bb57600080fd5b80632a55205a146103805780632b3e62d3146103bf57806330aefb61146103df57806332cb6b0c146103ff57806339a0c6f91461041a57600080fd5b8063095ea7b311610203578063095ea7b3146102da57806318160ddd146102fa57806323b872dd1461032957806323cf0a221461034957806329ee566c1461035c57600080fd5b80627171531461023457806301ffc9a71461024b57806306fdde0314610280578063081812fc146102a2575b600080fd5b34801561024057600080fd5b50610249610727565b005b34801561025757600080fd5b5061026b6102663660046119ed565b61076b565b60405190151581526020015b60405180910390f35b34801561028c57600080fd5b50610295610796565b6040516102779190611a5a565b3480156102ae57600080fd5b506102c26102bd366004611a6d565b610828565b6040516001600160a01b039091168152602001610277565b3480156102e657600080fd5b506102496102f5366004611a9d565b61084f565b34801561030657600080fd5b50600654600160a01b900461ffff165b60405161ffff9091168152602001610277565b34801561033557600080fd5b50610249610344366004611ac7565b610969565b610249610357366004611b03565b61099a565b34801561036857600080fd5b50610372600c5481565b604051908152602001610277565b34801561038c57600080fd5b506103a061039b366004611b27565b610bdc565b604080516001600160a01b039093168352602083019190915201610277565b3480156103cb57600080fd5b506102496103da366004611b03565b610c13565b3480156103eb57600080fd5b506102496103fa366004611b03565b610c3d565b34801561040b57600080fd5b506008546103169061ffff1681565b34801561042657600080fd5b50610249610435366004611bd5565b610c67565b34801561044657600080fd5b50610249610455366004611a6d565b610c7f565b34801561046657600080fd5b50610249610475366004611ac7565b610c8c565b34801561048657600080fd5b506102c2610495366004611a6d565b610ca7565b3480156104a657600080fd5b5060065461026b90600160c01b900460ff1681565b3480156104c757600080fd5b50610295610d07565b3480156104dc57600080fd5b506103726104eb366004611c1e565b610d95565b3480156104fc57600080fd5b50610249610e1b565b34801561051157600080fd5b50600e5461031690600160a01b900461ffff1681565b34801561053357600080fd5b5061026b610542366004611c1e565b610e2f565b34801561055357600080fd5b50610249610562366004611c49565b610ec6565b34801561057357600080fd5b506006546001600160a01b03166102c2565b34801561059157600080fd5b506102496105a0366004611c1e565b610eec565b3480156105b157600080fd5b506102496105c0366004611bd5565b610f16565b3480156105d157600080fd5b50610295610f2a565b3480156105e657600080fd5b50600b546102c2906001600160a01b031681565b34801561060657600080fd5b50610249610615366004611c64565b610f39565b34801561062657600080fd5b50600e5461031690600160b01b900461ffff1681565b34801561064857600080fd5b50610249610657366004611c97565b610f44565b34801561066857600080fd5b50610295610677366004611a6d565b610f7c565b34801561068857600080fd5b5061037260075481565b34801561069e57600080fd5b50600e546102c2906001600160a01b031681565b3480156106be57600080fd5b506102496106cd366004611a6d565b610fe3565b3480156106de57600080fd5b50610295610ff0565b3480156106f357600080fd5b5061026b610702366004611d13565b610ffd565b34801561071357600080fd5b50610249610722366004611c1e565b61102b565b61072f6110a4565b6001600660168282829054906101000a900461ffff1661074f9190611d53565b92506101000a81548161ffff021916908361ffff160217905550565b60006001600160e01b0319821663152a902d60e11b14806107905750610790826110fe565b92915050565b6060600080546107a590611d75565b80601f01602080910402602001604051908101604052809291908181526020018280546107d190611d75565b801561081e5780601f106107f35761010080835404028352916020019161081e565b820191906000526020600020905b81548152906001019060200180831161080157829003601f168201915b5050505050905090565b60006108338261114e565b506000908152600460205260409020546001600160a01b031690565b600061085a82610ca7565b9050806001600160a01b0316836001600160a01b0316036108cc5760405162461bcd60e51b815260206004820152602160248201527f4552433732313a20617070726f76616c20746f2063757272656e74206f776e656044820152603960f91b60648201526084015b60405180910390fd5b336001600160a01b03821614806108e857506108e88133610ffd565b61095a5760405162461bcd60e51b815260206004820152603d60248201527f4552433732313a20617070726f76652063616c6c6572206973206e6f7420746f60448201527f6b656e206f776e6572206f7220617070726f76656420666f7220616c6c00000060648201526084016108c3565b61096483836111ad565b505050565b610973338261121b565b61098f5760405162461bcd60e51b81526004016108c390611daf565b61096483838361127a565b600654600160c01b900460ff166109e55760405162461bcd60e51b815260206004820152600f60248201526e53616c65206e6f742061637469766560881b60448201526064016108c3565b600e5461ffff600160b01b90910481169082161115610a3f5760405162461bcd60e51b8152602060048201526016602482015275135a5b9d1a5b99c81b1a5b5a5d08195e18d95959195960521b60448201526064016108c3565b8061ffff16600754610a519190611dfc565b341015610a985760405162461bcd60e51b8152602060048201526015602482015274139bdd08195b9bdd59da08195d1a195c881cd95b9d605a1b60448201526064016108c3565b600654600160b01b900461ffff166000908152600a6020908152604080832033845290915290205460ff1615610b105760405162461bcd60e51b815260206004820152601760248201527f5573657220686173206d696e74656420616c726561647900000000000000000060448201526064016108c3565b60085460065461ffff91821691610b31918491600160a01b90910416611d53565b61ffff1610610b775760405162461bcd60e51b8152602060048201526012602482015271139bc81b5bdc99481a5d195b5cc81b19599d60721b60448201526064016108c3565b60005b8161ffff168161ffff161015610ba557610b93336113de565b80610b9d81611e13565b915050610b7a565b505060065461ffff600160b01b909104166000908152600a602090815260408083203384529091529020805460ff19166001179055565b6000806000612710600c5485610bf29190611dfc565b610bfc9190611e34565b600b546001600160a01b0316969095509350505050565b610c1b6110a4565b600e805461ffff909216600160a01b0261ffff60a01b19909216919091179055565b610c456110a4565b600e805461ffff909216600160b01b0261ffff60b01b19909216919091179055565b610c6f6110a4565b6009610c7b8282611ea4565b5050565b610c876110a4565b600c55565b61096483838360405180602001604052806000815250610f44565b6000818152600260205260408120546001600160a01b0316806107905760405162461bcd60e51b8152602060048201526018602482015277115490cdcc8c4e881a5b9d985b1a59081d1bdad95b88125160421b60448201526064016108c3565b60098054610d1490611d75565b80601f0160208091040260200160405190810160405280929190818152602001828054610d4090611d75565b8015610d8d5780601f10610d6257610100808354040283529160200191610d8d565b820191906000526020600020905b815481529060010190602001808311610d7057829003601f168201915b505050505081565b60006001600160a01b038216610dff5760405162461bcd60e51b815260206004820152602960248201527f4552433732313a2061646472657373207a65726f206973206e6f7420612076616044820152683634b21037bbb732b960b91b60648201526084016108c3565b506001600160a01b031660009081526003602052604090205490565b610e236110a4565b610e2d6000611431565b565b600e546000906001600160a01b03163314610e845760405162461bcd60e51b815260206004820152601560248201527443616c6c6572206973206e6f742067656e6573697360581b60448201526064016108c3565b60005b600e5461ffff600160a01b90910481169082161015610ebb57610ea9836113de565b80610eb381611e13565b915050610e87565b50600190505b919050565b610ece6110a4565b60068054911515600160c01b0260ff60c01b19909216919091179055565b610ef46110a4565b600b80546001600160a01b0319166001600160a01b0392909216919091179055565b610f1e6110a4565b600d610c7b8282611ea4565b6060600180546107a590611d75565b610c7b338383611483565b610f4e338361121b565b610f6a5760405162461bcd60e51b81526004016108c390611daf565b610f7684848484611551565b50505050565b6060610f878261114e565b6000610f91611584565b90506000815111610fb15760405180602001604052806000815250610fdc565b80610fbb84611593565b604051602001610fcc929190611f64565b6040516020818303038152906040525b9392505050565b610feb6110a4565b600755565b600d8054610d1490611d75565b6001600160a01b03918216600090815260056020908152604080832093909416825291909152205460ff1690565b6110336110a4565b6001600160a01b0381166110985760405162461bcd60e51b815260206004820152602660248201527f4f776e61626c653a206e6577206f776e657220697320746865207a65726f206160448201526564647265737360d01b60648201526084016108c3565b6110a181611431565b50565b6006546001600160a01b03163314610e2d5760405162461bcd60e51b815260206004820181905260248201527f4f776e61626c653a2063616c6c6572206973206e6f7420746865206f776e657260448201526064016108c3565b60006001600160e01b031982166380ac58cd60e01b148061112f57506001600160e01b03198216635b5e139f60e01b145b8061079057506301ffc9a760e01b6001600160e01b0319831614610790565b6000818152600260205260409020546001600160a01b03166110a15760405162461bcd60e51b8152602060048201526018602482015277115490cdcc8c4e881a5b9d985b1a59081d1bdad95b88125160421b60448201526064016108c3565b600081815260046020526040902080546001600160a01b0319166001600160a01b03841690811790915581906111e282610ca7565b6001600160a01b03167f8c5be1e5ebec7d5bd14f71427d1e84f3dd0314c0f7b2291e5b200ac8c7c3b92560405160405180910390a45050565b60008061122783610ca7565b9050806001600160a01b0316846001600160a01b0316148061124e575061124e8185610ffd565b806112725750836001600160a01b031661126784610828565b6001600160a01b0316145b949350505050565b826001600160a01b031661128d82610ca7565b6001600160a01b0316146112b35760405162461bcd60e51b81526004016108c390611f93565b6001600160a01b0382166113155760405162461bcd60e51b8152602060048201526024808201527f4552433732313a207472616e7366657220746f20746865207a65726f206164646044820152637265737360e01b60648201526084016108c3565b826001600160a01b031661132882610ca7565b6001600160a01b03161461134e5760405162461bcd60e51b81526004016108c390611f93565b600081815260046020908152604080832080546001600160a01b03199081169091556001600160a01b0387811680865260038552838620805460001901905590871680865283862080546001019055868652600290945282852080549092168417909155905184937fddf252ad1be2c89b69c2b068fc378daa952ba7f163c4a11628f55a4df523b3ef91a4505050565b600680546014906113f990600160a01b900461ffff16611e13565b91906101000a81548161ffff021916908361ffff1602179055506110a181600660149054906101000a900461ffff1661ffff16611626565b600680546001600160a01b038381166001600160a01b0319831681179093556040519116919082907f8be0079c531659141344cd1fd0a4f28419497f9722a3daafe3b4186f6b6457e090600090a35050565b816001600160a01b0316836001600160a01b0316036114e45760405162461bcd60e51b815260206004820152601960248201527f4552433732313a20617070726f766520746f2063616c6c65720000000000000060448201526064016108c3565b6001600160a01b03838116600081815260056020908152604080832094871680845294825291829020805460ff191686151590811790915591519182527f17307eab39ab6107e8899845ad3d59bd9653f200f220920489ca2b5937696c31910160405180910390a3505050565b61155c84848461127a565b61156884848484611640565b610f765760405162461bcd60e51b81526004016108c390611fd8565b6060600980546107a590611d75565b606060006115a083611741565b600101905060008167ffffffffffffffff8111156115c0576115c0611b49565b6040519080825280601f01601f1916602001820160405280156115ea576020820181803683370190505b5090508181016020015b600019016f181899199a1a9b1b9c1cb0b131b232b360811b600a86061a8153600a85049450846115f457509392505050565b610c7b828260405180602001604052806000815250611819565b60006001600160a01b0384163b1561173657604051630a85bd0160e11b81526001600160a01b0385169063150b7a029061168490339089908890889060040161202a565b6020604051808303816000875af19250505080156116bf575060408051601f3d908101601f191682019092526116bc91810190612067565b60015b61171c573d8080156116ed576040519150601f19603f3d011682016040523d82523d6000602084013e6116f2565b606091505b5080516000036117145760405162461bcd60e51b81526004016108c390611fd8565b805181602001fd5b6001600160e01b031916630a85bd0160e11b149050611272565b506001949350505050565b60008072184f03e93ff9f4daa797ed6e38ed64bf6a1f0160401b83106117805772184f03e93ff9f4daa797ed6e38ed64bf6a1f0160401b830492506040015b6d04ee2d6d415b85acef810000000083106117ac576d04ee2d6d415b85acef8100000000830492506020015b662386f26fc1000083106117ca57662386f26fc10000830492506010015b6305f5e10083106117e2576305f5e100830492506008015b61271083106117f657612710830492506004015b60648310611808576064830492506002015b600a83106107905760010192915050565b611823838361184c565b6118306000848484611640565b6109645760405162461bcd60e51b81526004016108c390611fd8565b6001600160a01b0382166118a25760405162461bcd60e51b815260206004820181905260248201527f4552433732313a206d696e7420746f20746865207a65726f206164647265737360448201526064016108c3565b6000818152600260205260409020546001600160a01b0316156119075760405162461bcd60e51b815260206004820152601c60248201527f4552433732313a20746f6b656e20616c7265616479206d696e7465640000000060448201526064016108c3565b6000818152600260205260409020546001600160a01b03161561196c5760405162461bcd60e51b815260206004820152601c60248201527f4552433732313a20746f6b656e20616c7265616479206d696e7465640000000060448201526064016108c3565b6001600160a01b038216600081815260036020908152604080832080546001019055848352600290915280822080546001600160a01b0319168417905551839291907fddf252ad1be2c89b69c2b068fc378daa952ba7f163c4a11628f55a4df523b3ef908290a45050565b6001600160e01b0319811681146110a157600080fd5b6000602082840312156119ff57600080fd5b8135610fdc816119d7565b60005b83811015611a25578181015183820152602001611a0d565b50506000910152565b60008151808452611a46816020860160208601611a0a565b601f01601f19169290920160200192915050565b602081526000610fdc6020830184611a2e565b600060208284031215611a7f57600080fd5b5035919050565b80356001600160a01b0381168114610ec157600080fd5b60008060408385031215611ab057600080fd5b611ab983611a86565b946020939093013593505050565b600080600060608486031215611adc57600080fd5b611ae584611a86565b9250611af360208501611a86565b9150604084013590509250925092565b600060208284031215611b1557600080fd5b813561ffff81168114610fdc57600080fd5b60008060408385031215611b3a57600080fd5b50508035926020909101359150565b634e487b7160e01b600052604160045260246000fd5b600067ffffffffffffffff80841115611b7a57611b7a611b49565b604051601f8501601f19908116603f01168101908282118183101715611ba257611ba2611b49565b81604052809350858152868686011115611bbb57600080fd5b858560208301376000602087830101525050509392505050565b600060208284031215611be757600080fd5b813567ffffffffffffffff811115611bfe57600080fd5b8201601f81018413611c0f57600080fd5b61127284823560208401611b5f565b600060208284031215611c3057600080fd5b610fdc82611a86565b80358015158114610ec157600080fd5b600060208284031215611c5b57600080fd5b610fdc82611c39565b60008060408385031215611c7757600080fd5b611c8083611a86565b9150611c8e60208401611c39565b90509250929050565b60008060008060808587031215611cad57600080fd5b611cb685611a86565b9350611cc460208601611a86565b925060408501359150606085013567ffffffffffffffff811115611ce757600080fd5b8501601f81018713611cf857600080fd5b611d0787823560208401611b5f565b91505092959194509250565b60008060408385031215611d2657600080fd5b611d2f83611a86565b9150611c8e60208401611a86565b634e487b7160e01b600052601160045260246000fd5b61ffff818116838216019080821115611d6e57611d6e611d3d565b5092915050565b600181811c90821680611d8957607f821691505b602082108103611da957634e487b7160e01b600052602260045260246000fd5b50919050565b6020808252602d908201527f4552433732313a2063616c6c6572206973206e6f7420746f6b656e206f776e6560408201526c1c881bdc88185c1c1c9bdd9959609a1b606082015260800190565b808202811582820484141761079057610790611d3d565b600061ffff808316818103611e2a57611e2a611d3d565b6001019392505050565b600082611e5157634e487b7160e01b600052601260045260246000fd5b500490565b601f82111561096457600081815260208120601f850160051c81016020861015611e7d5750805b601f850160051c820191505b81811015611e9c57828155600101611e89565b505050505050565b815167ffffffffffffffff811115611ebe57611ebe611b49565b611ed281611ecc8454611d75565b84611e56565b602080601f831160018114611f075760008415611eef5750858301515b600019600386901b1c1916600185901b178555611e9c565b600085815260208120601f198616915b82811015611f3657888601518255948401946001909101908401611f17565b5085821015611f545787850151600019600388901b60f8161c191681555b5050505050600190811b01905550565b60008351611f76818460208801611a0a565b835190830190611f8a818360208801611a0a565b01949350505050565b60208082526025908201527f4552433732313a207472616e736665722066726f6d20696e636f72726563742060408201526437bbb732b960d91b606082015260800190565b60208082526032908201527f4552433732313a207472616e7366657220746f206e6f6e20455243373231526560408201527131b2b4bb32b91034b6b83632b6b2b73a32b960711b606082015260800190565b6001600160a01b038581168252841660208201526040810183905260806060820181905260009061205d90830184611a2e565b9695505050505050565b60006020828403121561207957600080fd5b8151610fdc816119d756fea2646970667358221220cbf6290958ded70146276ade14b1d25c16d0282c60b3d0448bb76e199927823464736f6c63430008110033697066733a2f2f516d576951453635746d70597a636f6b436865516d6e673244434d33334445686a586350423650616e7770415a6f2f697066733a2f2f516d576951453635746d70597a636f6b436865516d6e673244434d33334445686a586350423650616e7770415a6f2f",
  "linkReferences": {},
  "deployedLinkReferences": {}
}